:1000000097310000938181A517010200130181FF40
:10001000138E0147938E01476F00C00023200E000E
:10002000130E4E00E36CDEFF130500009305000085
:10003000EF008001130504009302100013830142B6
:10004000232053006F000000130101FD232611023D
:1000500023248102130401031307100093060000F8
:1000600013068000B7C70100938507201305000021
:10007000EF00900513850100EF0040223705049042
:10008000EF10802FEF10C01B1385C100EF0000217F
:1000900093077005A307F4FE230704FEB737221168
:1000A000938747342324F4FEEF10C0208347F4FEE7
:1000B0000347E4FE832684FE1306070093850700AA
:1000C0001385C102EF00801D032584FEEF00106D33
:1000D0008345E4FE8347F4FE130700009306000007
:1000E0001306000013850700EF00D0771307B4FD57
:1000F0009307C4FD9305070013850700EF001070F8
:100100008325C4FD8327C4FD13F617008327C4FD90
:1001100093D7170093F717000347B4FD93860700A2
:1001200013850106EF008017832544FEB70704906E
:1001300013858700EF009069832504FEB7070490BC
:100140001385C700EF009068832544FE138581095D
:10015000EF00C014832504FE1385810AEF0000140C
:10016000232A04FC6F00400113000000832744FD94
:1001700093871700232AF4FC032744FDB7470F0099
:100180009387F723E3D2E7FE6FF01FFA130101FE16
:10019000232E1100232C8100130401022326A4FE28
:1001A0002324B4FE8327C4FE93F7F70F13850700BB
:1001B000EF00902293070500138507008320C101FB
:1001C000032481011301010267800000130101FE75
:1001D000232E1100232C8100130401022326A4FEE8
:1001E0008327C4FE93F7F70F13850700EF00D01E97
:1001F00093070500138507008320C10103248101B3
:100200001301010267800000130101FE232E11007B
:10021000232C8100130401022326A4FEEF00D01733
:1002200093070500138507008320C1010324810182
:100230001301010267800000130101FF2326110052
:100240002324810013040101EF001015930705001A
:10025000138507008320C1000324810013010101DD
:1002600067800000130101FD23261102232481026F
:1002700013040103232EA4FC0325C4FDEF00D01BAF
:100280002326A4FE8327C4FE138507008320C10212
:10029000032481021301010367800000130101FBA5
:1002A000232611022324810213040103232EA4FC1C
:1002B0002322B4002324C4002326D4002328E400EE
:1002C000232AF400232C0401232E14019307040293
:1002D000232CF4FC832784FD938747FE2324F4FE1C
:1002E000832784FE938507000325C4FDEF00C02803
:1002F0002326A4FE8327C4FE138507008320C102A2
:10030000032481021301010567800000130101FD30
:10031000232611022324810213040103232EA4FCAB
:10032000232CB4FC232AC4FC232604FE032784FDCB
:100330009307A0006318F7028327C4FD63D4070264
:100340001305D002EF005009130705008327C4FEF0
:10035000B307F7002326F4FE8327C4FDB307F0405C
:10036000232EF4FC832784FD0327C4FDB357F70233
:100370002324F4FE832784FE63980700032744FDAB
:100380009307100063D8E702832744FD9387F7FFA4
:10039000232AF4FC032644FD832584FD032584FEE3
:1003A000EFF0DFF6130705008327C4FEB387E700ED
:1003B0002326F4FE832784FD0327C4FDB377F702C9
:1003C000138707009387810BB387E70083C7070074
:1003D00013850700EF005000130705008327C4FEB4
:1003E000B307F7002326F4FE8327C4FE1385070016
:1003F0008320C102032481021301010367800000EE
:10040000130101FD23261102232481021304010399
:10041000232EA4FC232CB4FC232404FE930500000B
:100420000325C4FDEF1050309307050063D6070283
:100430001305D002EF00407A13070500832784FEDE
:10044000B307F7002324F4FE0327C4FDB707008099
:10045000B347F700232EF4FC0325C4FDEF20402C06
:10046000930705002322F4FE832744FE032684FD20
:100470009305A00013850700EFF05FE9130705005F
:10048000832784FEB387E7002324F4FE1305E002EC
:10049000EF00807413070500832784FEB307F7007D
:1004A0002324F4FE032544FEEF20802E930705004D
:1004B000938507000325C4FDEF10906393070500A3
:1004C000232EF4FC232604FE83A541120325C4FD3C
:1004D000EF10503093070500232EF4FC0325C4FDD4
:1004E000EF200024930705002322F4FE832744FE17
:1004F00093F7F70F9387070393F7F70F1385070019
:10050000EF00806D13070500832784FEB307F70013
:100510002324F4FE032544FEEF20802793070500E3
:10052000938507000325C4FDEF10905C9307050039
:10053000232EF4FC8327C4FE938717002326F4FEA2
:10054000930500000325C4FDEF10901793070500E5
:10055000638807000327C4FE93075000E3D6E7F63D
:10056000832784FE138507008320C10203248102B0
:100570001301010367800000130101FC232E110207
:10058000232C8102130401042326A4FC2324B4FC9D
:10059000232004FE6F000030032784FE93075002DF
:1005A0006310F72C8327C4FC83C707002324F4FEC1
:1005B000232604FE6F0040040327C4FE93070700B0
:1005C00093972700B387E7009397170013870700D7
:1005D000832784FEB307F700938707FD2326F4FEE5
:1005E0008327C4FC938717002326F4FC8327C4FCCD
:1005F00083C707002324F4FE032784FE9307F00239
:1006000063D8E700032784FE93079003E3D6E7FA55
:100610008327C4FC138717002326E4FC83C7070045
:100620002324F4FE032784FE930750026308F71E79
:10063000032784FE930750026340F720032784FEBC
:100640009307800763CAE71E032784FE93073006DB
:100650006344F71E832784FE9387D7F9130750015D
:10066000636CF71C139727009387C10CB307F7003F
:1006700083A7070067800700832784FC1387470050
:100680002324E4FC83A70700A30BF4FC834774FD39
:1006900013850700EF00405413070500832704FE6D
:1006A000B307F7002320F4FE6F00C01E832784FCED
:1006B000138747002324E4FC83A70700232EF4FCC0
:1006C0008327C4FD0326C4FE93058000138507001D
:1006D000EFF0DFC313070500832704FEB387E700AD
:1006E0002320F4FE6F00001B832784FC1387470040
:1006F0002324E4FC83A70700232EF4FC8327C4FDF6
:100700000326C4FE9305A00013850700EFF01FC069
:1007100013070500832704FEB387E7002320F4FEB8
:100720006F004017832784FC138747002324E4FCD1
:1007300083A70700232EF4FC8327C4FD0326C4FEF1
:100740009305000113850700EFF05FBC1307050058
:10075000832704FEB387E7002320F4FE6F00801395
:10076000832784FC138747002324E4FC83A7070026
:100770002322F4FE6F008004832744FE83C7070012
:1007800013850700EF00404513070500832704FE8B
:10079000B307F7002320F4FE832744FE03C70700B6
:1007A0009307A0006316F7001305D000EF00C042C6
:1007B000832744FE938717002322F4FE832744FEF9
:1007C00083C70700E39A07FA6F00C00C832784FCF5
:1007D0009387770093F787FF138787002324E4FC30
:1007E00003A7070083A747001305070093850700A9
:1007F000EF20800A93070500232CF4FC8325C4FE18
:10080000032584FDEFF0DFBF13070500832704FEF7
:10081000B387E7002320F4FE6F00C00713055002E2
:10082000EF00803B13070500832704FEB307F700A2
:100830002320F4FE6F00000613055002EF00C039BC
:1008400013070500832704FEB307F7002320F4FEF7
:100850008327C4FC9387F7FF2326F4FC6F008003F3
:10086000832784FE93F7F70F13850700EF00C03648
:1008700013070500832704FEB307F7002320F4FEC7
:10088000032784FE9307A0006316F7001305D0002A
:10089000EF0080348327C4FC138717002326E4FC71
:1008A00083C707002324F4FE832784FEE39607CE44
:1008B000832704FE138507008320C10303248103DB
:1008C0001301010467800000130101FC232E1102B3
:1008D000232C810213040104232EA4FC232CB4FC3A
:1008E000232AC4FC2328D4FC2326E4FC8327C4FD4C
:1008F00063960700EF00005B232EA4FC0327C4FDD2
:10090000832784FDB357F70213850700EF10405388
:10091000130705009387050003A6811283A6C11261
:100920001305070093850700EF00505013070500DB
:10093000938705001305070093850700EF104048D3
:100940009307050013870700B70701009387F7FF98
:10095000B377F7002326F4FE032744FD93078000B6
:100960006316F700930700006F008000B7070100CF
:100970000327C4FEB3E7E7002326F4FE832704FD24
:1009800063960700930700006F008000B70702001E
:100990000327C4FEB3E7E7002326F4FE032704FD84
:1009A000930710006316F700930700006F008000A4
:1009B000B70704000327C4FEB3E7E7002326F4FECD
:1009C0000327C4FC930710006316F7009307000089
:1009D0006F008000B70708000327C4FEB3E7E700F5
:1009E0002326F4FE83A7C1432324F4FE832784FE39
:1009F0000327C4FE23A0E700130000008320C103E7
:100A0000032481031301010467800000130101FC2A
:100A1000232E1102232C810213040104232EA4FC93
:100A2000232CB4FC232AC4FC2328D4FC2326E4FC76
:100A30002324F4FC232204FD8327C4FD63960700CE
:100A4000EF004046232EA4FC0327C4FD832784FD2A
:100A5000B357F70213850700EF10803E1307050018
:100A60009387050003A6811283A6C1121305070010
:100A700093850700EF00903B13070500938705005F
:100A80001305070093850700EF10803393070500D7
:100A900013870700B70701009387F7FFB377F700C5
:100AA0002326F4FE032744FD930780006316F70016
:100AB000930700006F008000B70701000327C4FE02
:100AC000B3E7E7002326F4FE832704FD63960700BF
:100AD000930700006F008000B70702000327C4FEE1
:100AE000B3E7E7002326F4FE032704FD9307100075
:100AF0006316F700930700006F008000B70704003B
:100B00000327C4FEB3E7E7002326F4FE0327C4FC53
:100B1000930710006316F700930700006F00800032
:100B2000B70708000327C4FEB3E7E7002326F4FE57
:100B3000832784FC63960700930700006F00800002
:100B4000B70720000327C4FEB3E7E7002326F4FE1F
:100B5000832744FC63960700930700006F00800022
:100B6000B70710000327C4FEB3E7E7002326F4FE0F
:100B700083A7C1432324F4FE832784FE0327C4FEF6
:100B800023A0E700130000008320C1030324810396
:100B90001301010467800000130101FE232E810070
:100BA0001304010283A781442324F4FE832784FED7
:100BB00083A707002326F4FE8327C4FEE3D407FEA1
:100BC0008327C4FE93F7F70F138507000324C101A1
:100BD0001301010267800000130101FD2326810239
:100BE0001304010393070500A30FF4FC83A74144FA
:100BF0002324F4FE832784FE83A707002326F4FE24
:100C00008327C4FEE3C407FE8347F4FD2326F4FED6
:100C100083A741442322F4FE832744FE0327C4FE16
:100C200023A0E7008347F4FD138507000324C102D6
:100C30001301010367800000130101FC232E8102D0
:100C4000130401042326A4FC232604FE6F000004E1
:100C500083A741442320F4FE832704FE83A70700D3
:100C60002322F4FE832744FEE3C407FE83A7414406
:100C7000232EF4FC8327C4FD0347B4FE23A0E70022
:100C80008327C4FE938717002326F4FE8327C4FC22
:100C9000138717002326E4FC83C70700A305F4FE8F
:100CA0008347B4FEE39607FA8327C4FE1385070043
:100CB0000324C1031301010467800000130101FC38
:100CC000232E1102232C8102130401042326A4FCE9
:100CD0000327C4FC9307A000B357F7022326F4FEB2
:100CE0008327C4FE638807008327C4FE138507009B
:100CF000EFF0DFFC0327C4FC9307A000B377F702F3
:100D000093F7F70F93870703A305F4FE83A74144E6
:100D1000232AF4FC832744FD83A70700232CF4FC3B
:100D2000832784FDE3C407FE83A741442328F4FC02
:100D3000832704FD0347B4FE23A0E700130000004F
:100D40008320C10303248103130101046780000091
:100D5000130101FC232E1102232C81021304010430
:100D60002326A4FC8327C4FC93D747002324F4FE46
:100D7000832784FE63880700832784FE138507008A
:100D8000EFF01FFD8327C4FC93F7F7002324F4FE44
:100D9000032784FE9307900063CCE700832784FE3B
:100DA00093F7F70F93870703A307F4FE6F00400143
:100DB000832784FE93F7F70F93877703A307F4FE47
:100DC00083A741442320F4FE832704FE83A7070062
:100DD0002322F4FE832744FEE3C407FE83A7414495
:100DE000232EF4FC8327C4FD0347F4FE23A0E70071
:100DF000130000008320C1030324810313010104B5
:100E000067800000130101FE232E810013040102FC
:100E100083A701442324F4FE832784FE83A70700CD
:100E20002326F4FE8327C4FE93F7E7FF2326F4FE70
:100E300083A701442322F4FE832744FE0327C4FE34
:100E400023A0E700130000000324C10113010102E5
:100E500067800000130101FE232E810013040102AC
:100E600083A701442324F4FE832784FE83A707007D
:100E70002326F4FE8327C4FE93F7D7FF2326F4FE30
:100E800083A701442322F4FE832744FE0327C4FEE4
:100E900023A0E700130000000324C1011301010295
:100EA00067800000130101FE232E8100130401025C
:100EB00083A7C1442324F4FE832784FE83A707006D
:100EC0002326F4FE8327C4FE138507000324C101F3
:100ED0001301010267800000130101FE232E81002F
:100EE000130401022326A4FE0327C4FE23A8E14223
:100EF0000327C4FE23AAE1428327C4FE13874700C9
:100F000023ACE1428327C4FE1387070123AEE142ED
:100F10008327C4FE1387470123A0E1448327C4FE2F
:100F20001387870123A2E1448327C4FE1387C701E7
:100F300023A4E1448327C4FE1387070223A6E144C8
:100F4000130000000324C1011301010267800000A7
:100F5000130101FF232681001304010183A701432C
:100F6000138507000324C1001301010167800000FD
:100F7000130101FE232E81001304010283A7814681
:100F800083A707002326F4FE8327C4FE13850700EA
:100F90000324C1011301010267800000130101FE57
:100FA000232E8100130401022326A4FE83A70146F9
:100FB000138707008327C4FE2320F70013000000D7
:100FC0000324C1011301010267800000130101FE27
:100FD000232E8100130401022326A4FE2324B4FE41
:100FE0008327C4FE83A707002324F4FE1300000018
:100FF0000324C1011301010267800000130101FDF8
:101000002326810213040103232EA4FC232CB4FC09
:1010100083A7414683A707002326F4FE8327C4FD48
:10102000638807008327C4FD0327C4FE23A0E700CD
:10103000832784FD638007028327C4FE93D787003C
:1010400093F7F70F93F7F70113F7F70F832784FD53
:101050002380E700130000000324C10213010103F1
:1010600067800000130101FD232611022324810261
:101070001304010393070500A30FF4FC93870500F5
:10108000230FF4FC93070600A30EF4FC93870600DD
:10109000230EF4FC93070700A30DF4FC232004FEA9
:1010A0008347F4FD9397170013F7F70F832704FE88
:1010B000B367F7002320F4FE8347D4FD13F717002E
:1010C000832704FEB367F7002320F4FE8347E4FD83
:1010D00013978700832704FEB367F7002320F4FEED
:1010E0008347C4FD13970701B70701003377F70063
:1010F000832704FEB367F7002320F4FE8347B4FD83
:1011000013971701B70702003377F700832704FE10
:10111000B367F7002320F4FE032704FEB70700801F
:10112000B367F7002320F4FE832704FE93850700AE
:1011300013850113EFF08F9683A7C145138707002E
:10114000832704FE2320F70083A7C14583A7070058
:101150002324F4FE832704FE13860700832584FEE0
:1011600013850115EFF08F93832704FE032784FE78
:10117000630CF700832704FE032684FE9385070093
:1011800013850119EFF08F918307F4FD93971700F2
:1011900013978701135787418347D4FDB337F00076
:1011A00093F7F70F9397870193D78741B367F700BA
:1011B0009397870193D78741A303F4FE832704FE07
:1011C000938507001385C11CEFF04F8D8347F4FD15
:1011D0000347D4FD834674FE13060700938507007A
:1011E0001385C11EEFF08F8B930770002326F4FE4A
:1011F0006F00C002034774FE8327C4FEB357F74055
:1012000093F717009385070013858122EFF00F896C
:101210008327C4FE9387F7FF2326F4FE8327C4FEAB
:10122000E3DA07FC1385C122EFF04F8713000000BB
:101230008320C1020324810213010103678000009F
:10124000130101FE232E1100232C8100130401023F
:10125000232604FE83A7C145138707008327C4FE06
:101260002320F700130774FE930784FE93050700FD
:1012700013850700EFF09FD8832584FE832784FE23
:1012800013F61700832784FE93D7170093F71700F0
:10129000034774FE9386070013850123EFF00F8048
:1012A000130000008320C101032481011301010206
:1012B00067800000130101FE232E1100232C810002
:1012C0001304010213850127EFE05FFD83A7414569
:1012D00083A707002326F4FE8325C4FE1385012877
:1012E000EFE0DFFB83A7814583A707002326F4FEF9
:1012F0008325C4FE13858129EFE05FFA83A7C145EA
:1013000083A707002326F4FE8325C4FE1385012B43
:10131000EFE0DFF883A7014683A707002326F4FE4A
:101320008325C4FE1385812CEFE05FF783A7414638
:1013300083A707002326F4FE8325C4FE1385012E10
:10134000EFE0DFF583A7814683A707002326F4FE9D
:101350008325C4FE1385812FEFE05FF413850131EF
:10136000EFE0DFF3130000008320C10103248101BB
:101370001301010267800000130101FE232E81008A
:10138000130401022326A4FE0327C4FE23A8E1447C
:101390000327C4FE23AAE1448327C4FE1387470022
:1013A00023ACE1448327C4FE1387870023AEE144C6
:1013B0008327C4FE1387C70023A0E1468327C4FE0A
:1013C0001387070123A2E1468327C4FE1387470141
:1013D00023A4E14693070000138507000324C101FD
:1013E0001301010267800000130101FF2326810021
:1013F0001304010183A70145138507000324C100DD
:101400001301010167800000130101FD2326810201
:1014100013040103232EA4FC232604FE6F004001C5
:10142000130000008327C4FE938717002326F4FED1
:101430008327C4FE0327C4FDE3E4E7FE1300000096
:10144000130000000324C1021301010367800000A0
:10145000130101FE232E1100232C8100130401022D
:10146000930705009386050013070600A307F4FE03
:10147000938706002307F4FE93070700A306F4FEF4
:1014800037050490EFF05FEF8347D4FE1385070024
:10149000EFF0DFB08345E4FE8347F4FE130700005E
:1014A000930600001306000013850700EFF09FBBB2
:1014B000B7574C00138507B4EFF01FF51300000079
:1014C0008320C10103248101130101026780000010
:1014D000130101FD232611022324810213040103B9
:1014E0009307050013870500A30FF4FC930707007B
:1014F000230FF4FC37050490EFF01FE88345E4FD6B
:101500008347F4FD13070000930610001306100034
:1015100013850700EFF01FB5B7979800138507688C
:10152000EFF09FEEEFF0DFA493070500A307F4FEB2
:101530008347F4FE138507008320C1020324810240
:101540001301010367800000130101FE232E110027
:10155000232C810013040102930705001387050063
:101560002324C4FEA307F4FE930707002307F4FE19
:1015700037050490EFF05FE0032584FEEFF01FA233
:101580008345E4FE8347F4FE130710009306000032
:101590001306000013850700EFF0DFACB797980043
:1015A00013850768EFF05FE6130000008320C10198
:1015B000032481011301010267800000130101FE71
:1015C000232E1100232C8100130401029307050030
:1015D00013870500A307F4FE930707002307F4FE13
:1015E00037050490EFF05FD98345E4FE8347F4FEAE
:1015F0001307100093061000130610001385070050
:10160000EFF05FA6B797980013850768EFF0DFDF6C
:10161000EFF01F9693070500138507008320C10193
:1016200003248101130101026780000037081000C4
:101630001308F8FF130101FEB378B80013D7450172
:101640009357D5013378D800232A91009374F77FFC
:101650001397380093D84601131838002328210126
:10166000B3E7E70093F8F87F1357D601232E110054
:10167000232C81002326310113D9F50193D6F601DD
:1016800033670701131535001316360033881441EC
:10169000631AD92A635C001163900804B366C7001B
:1016A000638006669305F8FF639005023306C50064
:1016B000B336A6003387E70013050600B307D7004B
:1016C000930410006F00C0069306F07F6310D802E9
:1016D0009304F07F6F00801F9306F07F6388D41E11
:1016E000B70680003367D700930508009306800390
:1016F00063C8B60A9306F00163CAB606130800026F
:101700003308B840B3160701B358B60033180601C2
:10171000B3E6160133380001B3E60601B355B7004E
:101720003385A600B385F500B336D500B387D50061
:1017300013978700635C0718938414001307F07FE6
:10174000638AE45A370780FF1307F7FF33F7E70090
:101750009357150013751500B3E7A7001315F7018C
:101760003365F500935717006F004016938605FE0A
:1017700093080002B356D7001308000063881501D0
:10178000130800043308B840331807013368C80051
:1017900033380001B3E60601930500006FF05FF8EF
:1017A000B366C700B336D0006FF01FFF630A080CA2
:1017B000B386984063940402B3E5A700638E055096
:1017C0009385F6FFE38405EE1308F07F639206032A
:1017D00093070700130506006FF09FEF9305F07F56
:1017E000E388B8FEB7058000B3E7B700938506002D
:1017F0009306800363C0B6089306F00163C2B60483
:10180000130800023308B840B39607013353B500FC
:1018100033180501B3E6660033380001B3E606016C
:10182000B3D5B7003386C600B385E500B336D6001E
:1018300013050600B387D500938408006FF05FEFAF
:10184000938605FE13030002B3D6D70013080000E9
:1018500063886500130800043308B8403398070113
:101860003368A80033380001B3E606019305000091
:101870006FF05FFBB3E6A700B336D0006FF01FFF39
:101880009386140093F5E67F63960508B3E6A700F8
:101890006392040663880644B366C7006388060241
:1018A0003306C500B336A6003387E700B307D70079
:1018B0001397870013050600635A0700370780FF58
:1018C0001307F7FFB3F7E7009304100013777500D1
:1018D000630807441377F500930640006302D7447A
:1018E00013074500B336A700B387D70013050700D9
:1018F0006F000043E38E06EC3366C700E30A06DCA4
:1019000013090000B7074000130500009304F07F9F
:101910006F0000419305F07F638CB63C3306C50031
:101920003335A6003387E7003307A7001315F70107
:10193000135616003365C5009357170093840600AD
:101940006FF0DFF8635C000F639E0808B366C700A2
:101950006388063A9306F8FF639006023306C54093
:10196000B336C5003387E74013050600B307D740F9
:10197000930410006F0040059305F07FE30AB8D48C
:101980009305800363C6D50A9305F00163C8D506A5
:10199000130800023308D840B358D600B315070126
:1019A00033180601B3E515013338000133E60501AC
:1019B000B356D7003306C5403337C500B386D7408A
:1019C00013050600B387E64013978700E35007F03E
:1019D000370480001304F4FF33F4870093090500F3
:1019E0006F0000219306F07FE382D4EEB7068000FB
:1019F0003367D700930608006FF09FF8938506FEC3
:101A000093080002B355B70013080000638816015D
:101A1000130800043308D840331807013368C8009E
:101A20003338000133E60501930600006FF09FF89C
:101A30003366C7003336C0006FF01FFF6308080E1F
:101A40003388984063920404B3E5A700638E052AA7
:101A50009305F8FF639E05003305A6403307F74062
:101A60003336A600B307C740138906006FF05FF056
:101A70001303F07F63146802930707001305060041
:101A80009304F07F6F00000D9305F07FE386B8FEAE
:101A9000B7058000B3E7B70093050800130880037B
:101AA0006340B8081308F0016342B804130300024E
:101AB0003303B340335EB5003398670033136500DA
:101AC0003368C8013333600033656800B3D5B700AD
:101AD0003305A640B305B7403336A600B387C540EB
:101AE00093840800138906006FF01FEE138805FE2B
:101AF000130E000233D80701130300006388C501E9
:101B0000130300043303B340339367003363A3002C
:101B10003333600033656800930500006FF05FFBAE
:101B200033E5A7003335A0006FF01FFF9385140045
:101B300093F5E57F6396050833E8A700B365C70012
:101B400063900406631C0800638E0510930707006A
:101B500013050600138906006FF05FD7E38805D6EA
:101B60003308C540B3380501B385E740B385154157
:101B70009398850063DC08003305A6403307F740DF
:101B80003336A600B307C7406FF0DFFC3365B800FB
:101B90006304051893870500130508006FF01FD331
:101BA000631C0800E38E05D49307070013050600A5
:101BB000138906006FF0DFB1E38C05B06FF05FD4DE
:101BC000B305C5403338B5003384E74033040441DE
:101BD000131884009389050063500808B309A640D0
:101BE0003304F740333636013304C440138906000A
:101BF000630E040613050400EF009061930685FF51
:101C000093070002B387D7403314D400B3D7F90049
:101C1000B3E787003394D90063C4960AB38696402D
:101C2000138616001307F0016342C706130700026C
:101C30003307C7403395E700B356C4003317E400B9
:101C40003365D5003337E0003365E500B3D7C7000F
:101C5000930400006FF09FC7B3E58500E39A05F891
:101C600093040000130900006F00C00813850900E9
:101C7000EF00105A930685019307F001E3D2D7F8DD
:101C8000930785FFB397F9006FF01FF9938616FE4F
:101C900033D5D70093060002130700006308D6006F
:101CA000130700043307C7403397E7003367E400A6
:101CB0003337E0003365E500930700006FF05FF90C
:101CC000370780FF1307F7FFB384D440B3F7E7006B
:101CD000130504006FF09FBF93070700130506006C
:101CE0006FF0DFC593070700130506006FF01FBEF6
:101CF0009304F07F93070000130500006F0040027B
:101D0000930408006FF09FBC9307070013050600BB
:101D1000930408006FF01FE493070000130900000C
:101D200013978700635E0700938414001307F07F06
:101D30006382E408370780FF1307F7FFB3F7E70074
:101D40009396D701135535001307F07FB3E6A6002D
:101D500093D73700639EE400B3E6F60093070000D4
:101D600063880600B7070800930600001309000007
:101D7000139744013706F07F9397C7003377C70066
:101D80008320C1010324810193D7C700B367F70003
:101D90001317F90133E6E700832441010329010108
:101DA0008329C10013850600930506001301010273
:101DB0006780000093070000130500006FF05FF8D4
:101DC00013D74501B70610009387F6FF1377F77F07
:101DD0001306E03FB3F7B70093D5F501635EE60461
:101DE0001306D041635AE600370500801305F5FF5E
:101DF0003385A50067800000B3E7D7009306304322
:101E0000B386E6401306F0016340D6021307D7BE3F
:101E1000B397E7003355D50033E5A700638005028B
:101E20003305A04067800000930630413387E640C9
:101E300033D5E7006FF09FFE1305000067800000B8
:101E4000130101FF23248100232611001304050040
:101E500063020506EF00D03B1307E0419307A000A3
:101E60003307A74063C0A7049307B000B387A74018
:101E700013055501B357F4003314A4008320C100A7
:101E8000130504009397C70003248100131747012B
:101E900093D7C700B366F7009385060013010101CD
:101EA00067800000130555FFB317A400130400005A
:101EB0006FF0DFFC93070000130700006FF01FFCBA
:101EC00093567501B70780009387F7FF13D6750106
:101ED00093F6F60F9308F00F33F8A7001357F501A8
:101EE000B3F7B7001376F60F93D5F501130510007D
:101EF000639A1601631608006314D600638A07000C
:101F000067800000E30E16FFE39CC6FEE31AF8FEAE
:101F100013050000E306B7FE13051000E39206FE6A
:101F20003335000167800000B70780009387F7FF13
:101F30009356750133F6A7001357F50193F6F60F84
:101F400013D575011308F00FB3F7B7001375F50F2C
:101F500093D5F50163940601631206041308F00F8C
:101F600063140501639C0702639A0604631C05025F
:101F7000631806046382070413051000639E0502BC
:101F80001305F0FF67800000E3C8A6FE63E2C70206
:101F9000130500006372F6026FF01FFE13052000A8
:101FA00067800000E30A06FC639EE500E35ED5FC63
:101FB0001305F0FF638C050067800000E31605FE43
:101FC000E39407FE1305F0FFE31807FE1305100066
:101FD00067800000130101FE2328210113597501B8
:101FE000232A9100232631012322510193149500C5
:101FF000232E1100232C8100232441011379F90F92
:10200000938A050093D494009359F501630809104D
:102010009307F00F6304F91293943400B707000498
:10202000B3E4F400130919F8130A000093D77A01F6
:1020300013949A0093F7F70F1354940093DAFA016C
:10204000638E07101307F00F638AE712131434002E
:10205000370700043364E400938717F81307000080
:102060003309F90093172A00B3E7E7001306A0002D
:10207000930619006342F61E13062000B3C95901E6
:10208000634EF6109387F7FF13061000637AF6127B
:10209000370801001305F8FF13D604019357040114
:1020A000B3F4A4003374A400B3059402330486028D
:1020B0003306F602B38797023387870093D705016B
:1020C000B387E70063F487003306060133F7A70000
:1020D00013170701B3F5A5003307B70093D707011E
:1020E00013146700B387C7001357A70193976700BE
:1020F000333480003364E4001397470033E48700EF
:10210000635A0700935714001374140033E48700D4
:1021100013890600930609006F00000C638A04020D
:1021200013850400EF00D00E9307B5FF1309A0F844
:10213000B394F4003309A9406FF01FEF1309F00FB7
:10214000130A2000E38404EE130A30006FF01FEE40
:1021500013090000130A10006FF05FED630A040218
:1021600013050400EF00D00A9307B5FF3314F40001
:102170009307A0F8B387A7406FF05FEE9307F00FC7
:1021800013072000E30E04EC130730006FF05FED3F
:1021900093070000130710006FF09FEC1306100068
:1021A000B317F60013F607536310060C13F6072453
:1021B0006312061293F78708E38C07EC93890A00F1
:1021C000930720006302F710930730006304F710B1
:1021D000930710006308F7101387F607635CE008A5
:1021E00093777400638A07009377F4001306400026
:1021F0006384C700130444009317440063DA0700A4
:10220000B70700F89387F7FF3374F40013870608C5
:102210009307E00F63CAE70A935734008320C10194
:1022200003248101939797001315770193D79700A3
:102230009399F9013365F5008324410103290101D4
:10224000032A8100832A4100336535018329C100B7
:1022500013010102678000001306F000638CC706BB
:102260001306B000E38CC7F41384040013070A00BC
:102270006FF01FF593071000B387E7401307B00115
:102280006342F7069386E609B316D400B357F40009
:10229000B336D000B3E7D70013F77700630A07001F
:1022A00013F7F700930640006304D70093874700B5
:1022B0001397570093D7370063580702930700001E
:1022C000130710006FF09FF5930700001307F00F3E
:1022D0006FF0DFF4B70740001307F00F9309000019
:1022E0006FF0DFF393070000130700006FF01FF398
:1022F000B70680009386F6FF130101FF33F6A600B0
:1023000013577501232481001354F501131536006A
:1023100013D67501B3F6B600232021012326110040
:102320001379F70F232291001376F60F1307F00F9E
:1023300093D5F501939736006314E6006394070084
:1023400093C51500B306C94063908518635CD00837
:1023500063160602638007029306F9FF639806007E
:10236000B387A700130910006F00C0041307F00F14
:10237000631EE900930705006F00C0101307F00FFC
:10238000E30AE9FE37070004B3E7E7001306B001EC
:1023900013071000634ED6001306000233D7D70090
:1023A000B306D640B396D700B336D0003367D70014
:1023B000B307A700139757006356070C13091900BA
:1023C0001307F00F630AE92C3707007E93F6170016
:1023D0001307F7FF93D71700B3F7E700B3E7D7006A
:1023E0006F00400A63860606330726416310090220
:1023F0006308050C9306F7FFE38406F69305F00FD8
:102400006310B7021309F00F6F00C0079306F00FB7
:10241000E30AD6FEB70600043365D500930607002D
:102420009305B0011307100063CED5001307000217
:102430003307D7403317E500B355D5003337E000F5
:1024400033E7E500B387E700130906006FF09FF656
:10245000130719009376E70F639C060463120904BF
:1024600063020502E38807F0B387A70013975700BC
:10247000635A0700370700FC1307F7FFB3F7E700BD
:102480001309100013F77700630A072013F7F7000A
:10249000930640006304D720938747006F00002015
:1024A000E30205F663960716930705006FF09FF5A4
:1024B0009306F00F6300D71EB307F50093D71700FC
:1024C000130907006FF01FFC635ED0066312060657
:1024D000E38207EA9306F9FF63980600B307F54025
:1024E000130910006F0040031307F00FE304E9E83D
:1024F0001306B00113071000634ED6001306000246
:1025000033D7D700B306D640B396D700B336D00042
:102510003367D700B307E54013975700E35407F636
:10252000B70400049384F4FFB3F497006F008010A5
:102530001307F00FE300E9E437070004B3E7E7000F
:102540006FF01FFB638E06063307264163160902F0
:10255000630E051A9306F7FF63980600B387A7403A
:10256000138405006FF0DFF71308F00F6310070303
:102570001309F00F6F00C0199306F00FE30AD6FE9F
:10258000B70600043365D500930607001308B001B1
:1025900013071000634ED800130700023307D7401B
:1025A0003317E5003358D5003337E0003367E800D0
:1025B000B387E74013090600138405006FF0DFF5C9
:1025C000130719001377E70F631C0704631C090244
:1025D00063180500639E0712130400006F00000CCF
:1025E000E38A07D83307F54093165700B387A7400F
:1025F00063C0061293070700E31607E8930700007D
:102600006FF09FFDE31005EA13840500E39C07DEED
:1026100013040000B70700021309F00F6F00000851
:10262000B304F5401397540063540704B384A740E0
:102630001384050013850400EF00803D1305B5FFEA
:10264000B394A400634E25033305254113051500FB
:10265000130700023307A740B3D7A400B394E400E4
:10266000B3349000B3E79700130900006FF09FE1C7
:10267000E39204FC93070000130900006FF0DFF5FC
:10268000B70700FC9387F7FF3309A940B3F7F400BD
:102690006FF05FDF1309F00F9307000013975700E7
:1026A000635E0700130919001307F00F6306E906BC
:1026B000370700FC1307F7FFB3F7E7001307F00F26
:1026C00093D737006318E90063860700B707400017
:1026D000130400008320C100131779011315F401BE
:1026E000B706807F03248100939797003377D70044
:1026F00093D79700B367F7008324410003290100B3
:1027000033E5A700130101016780000013090700EA
:10271000138405006FF01FD7930700006FF01FFAB6
:1027200037068000135775019307F6FF1377F70FED
:102730009305E007B3F7A7009356F50163D6E504C8
:102740009305D00963DAE500370500801305F5FF2E
:102750003385A6006780000033E5C7009307500962
:1027600063DCE7001307A7F63315E5006380060274
:102770003305A0406780000093076009B387E740F6
:102780003355F5006FF09FFE1305000067800000D1
:10279000130101FF2326110023248100232291002D
:1027A000930705006300050E1357F5413344A70056
:1027B0003304E4409354F50113050400EF00402571
:1027C0009307E009B387A740130760096340F70444
:1027D00013078000630EE50A130585FF3314A40078
:1027E0001314940013549400939777018320C1002D
:1027F000B3E78700032481001395F40133E5A700B4
:102800008324410013010101678000001307900930
:102810006354F706130750003307A7409306B5012A
:102820003357E4003314D400333480003367870017
:10283000370400FC1304F4FF9376770033748700A9
:10284000638A06001377F700930640006304D700FD
:102850001304440013175400635C0700B70700FC1F
:102860009387F7FF3374F4009307F009B387A74009
:10287000135434006FF0DFF61307B5FF3317E4008D
:102880006FF01FFB93040000130400006FF05FF56E
:10289000930760096FF0DFF413D645011376F67FD6
:1028A0009397C5001307160093D797009356D50149
:1028B0001377E77FB3E6F60093D5F501931735005C
:1028C0006306070A130706C81308E00F6342E80C03
:1028D0006340E008130590FE634AA71037058000A7
:1028E000B3E6A6001305E0013305E5401308F00147
:1028F0006348A802130626C833D5A700B397C700BC
:10290000B337F000B396C600B3E7D700B367F5005E
:102910001307000093F67700638006086F00800DB0
:102920001308E0FF3308E8409308000233D806019B
:102930001307000063061501130626CA3397C60065
:102940003367F7003337E000B367E8006FF05FFCF0
:10295000131565003335A0009396360093D7D70141
:10296000B366D500B3E7F6006FF0DFFAB3E7F60021
:1029700063160600B337F0006FF09FF91307F00FEE
:10298000638C070093963600B70700026FF09FFD37
:10299000930700001307F00F9396570063DE0600BD
:1029A000130717009306F00F6300D706B70600FC65
:1029B0009386F6FFB3F7D7009306F00F93D737004F
:1029C0006318D70063860700B7074000930500002F
:1029D000B706807F131777013377D7003367F70087
:1029E0001395F5013365A700678000009307100079
:1029F0001307000093F6F70013064000E38EC6F8B5
:102A0000938747006FF05FF9930700006FF0DFFADC
:102A1000B70701006378F5029337051093B71700E5
:102A20009397370093060002B386F6403355F500BE
:102A300093870132B387A70003C507003385A640FB
:102A4000678000003707000193078001E37CE5FC05
:082A5000930700016FF01FFD68
:102A58006D61696E2073746172740A004932432093
:102A6800454550524F4D20777269746520746573DF
:102A7800742073746172740A000000005B49324369
:102A88002057524954455D20646576373D30782596
:102A980030327820776F72643D3078253032782074
:102AA800646174613D3078253038780A0000000090
:102AB8005B4932432053544154455D20737461741B
:102AC80075733D3078253038782028627573793DE4
:102AD80025642C20646F6E653D25642C2073746119
:102AE80074653D2564290A0064617461303D30785D
:102AF800253038780A00000064617461313D30780F
:102B0800253038780A000000303132333435363712
:102B18003839414243444546000000007806000029
:102B2800E806000038080000CC070000380800005C
:102B3800380800003808000038080000380800008D
:102B4800380800003808000038080000AC0600000B
:102B58003808000038080000380800006007000046
:102B6800380800003808000038080000380800005D
:102B78002407000000002041000000000000E03FA2
:102B88006932635F73746172745F73696D706C65C9
:102B98003A206374726C3D3078253038780A00002A
:102BA8006932635F73746172745F73696D706C65A9
:102BB8003A2061667465722077726974652C2044C6
:102BC800415441303D307825303878202865787078
:102BD80065637465643D307825303878290A0000CB
:102BE8005741524E494E473A20444154413020778C
:102BF80072697465206661696C6564212057726921
:102C08007474656E3D3078253038782C20526561B3
:102C1800643D3078253038780A0000006932635FF7
:102C280073746172745F73696D706C653A20646166
:102C38007461303D3078253038780A00202064658A
:102C480076373D3078253032782028372D62697400
:102C5800292C2069735F726561643D25642C2061AD
:102C6800646472383D3078253032782028382D62F7
:102C780069743A200000000025640000290A000059
:102C88006932635F696E697420696E697469616C21
:102C9800207374617475733D307825303878202836
:102CA800627573793D25642C20646F6E653D2564DB
:102CB8002C2073746174653D2564290A0A0000009C
:102CC8006932635F63737220696E2E0A0000000028
:102CD8004932432056455253494F4E3A20307825C1
:102CE8003038780A00000000493243204E414D45F3
:102CF8002020203A203078253038780A000000005B
:102D080049324320444154413020203A203078252C
:102D18003038780A000000004932432044415441C9
:102D28003120203A203078253038780A0000000019
:102D380049324320535441545553203A2030782582
:102D48003038780A00000000493243204441544199
:102D58003220203A203078253038780A00000000E8
:102D68006932635F637372206F75742E0A00000006
:102D7800000102020303030304040404040404041A
:102D880005050505050505050505050505050505EB
:102D980006060606060606060606060606060606CB
:102DA80006060606060606060606060606060606BB
:102DB800070707070707070707070707070707079B
:102DC800070707070707070707070707070707078B
:102DD800070707070707070707070707070707077B
:102DE800070707070707070707070707070707076B
:102DF800080808080808080808080808080808084B
:102E0800080808080808080808080808080808083A
:102E1800080808080808080808080808080808082A
:102E2800080808080808080808080808080808081A
:102E3800080808080808080808080808080808080A
:102E480008080808080808080808080808080808FA
:102E580008080808080808080808080808080808EA
:102E680008080808080808080808080808080808DA
:102E7800000000000000000000000000000000004A
:102E880000000290000002900400029010000290DE
:102E980014000290180002901C000290200002907A
:102EA80000000490000004900400049008000490BE
:102EB8000C0004901000049014000490000000001E
:00000001FF
