:1000000097510000938181D917010200130181FFEC
:10001000138E0176938E41766F00C00023200E0070
:10002000130E4E00E36CDEFF130500009305000085
:10003000EF00800113050400930210001383816C0C
:10004000232053006F000000130101FD232611023D
:10005000232481021304010337050290EF00D06DC1
:10006000130710009306000013068000B7C70100B5
:1000700093850720B7E7F50513850710EF00D00A31
:1000800037050390EF20905113850100EF00002702
:1000900037050390EF20102BEF2040772322A4FE9A
:1000A000832544FE1385C101EF004025832744FECC
:1000B00093D7470093F7F700938507001385410313
:1000C000EF00C02313854105EF004023232604FEE3
:1000D0006F0080088327C4FE938747001307100032
:1000E000B317F70093C7F7FF93F7070F232EF4FC1E
:1000F0000325C4FDEF204074B727000093870771E4
:100100002328F4FC13000000832704FD1387F7FF66
:100110002328E4FCE39A07FEEF20406F232CA4FC85
:10012000832784FD93D7470093F7F700232AF4FC35
:100130008327C4FE93871700832644FD0326C4FD4E
:100140009385070013854106EF00401B8327C4FEFB
:10015000938717002326F4FE0327C4FE930730007D
:10016000E3DAE7F61305000FEF20006D1385810831
:10017000EF00C0181385C109EF004018232404FEC6
:10018000EF20505793070500A301F4FE834734FE88
:10019000E38807FE832784FE938717002324F4FE59
:1001A000834734FE032684FE938507001385C10B25
:1001B000EF00C0141305401FEF20505D032784FE9D
:1001C00093073001E3DEE7FA1385410DEF000013DA
:1001D0001300000093070000138507008320C1026D
:1001E000032481021301010367800000130101FE53
:1001F000232E1100232C8100130401022326A4FEC8
:100200002324B4FE8327C4FE93F7F70F138507005A
:10021000EF00902293070500138507008320C1019A
:10022000032481011301010267800000130101FE14
:10023000232E1100232C8100130401022326A4FE87
:100240008327C4FE93F7F70F13850700EF00D01E36
:1002500093070500138507008320C1010324810152
:100260001301010267800000130101FE232E11001B
:10027000232C8100130401022326A4FEEF00D017D3
:1002800093070500138507008320C1010324810122
:100290001301010267800000130101FF23261100F2
:1002A0002324810013040101EF00101593070500BA
:1002B000138507008320C10003248100130101017D
:1002C00067800000130101FD23261102232481020F
:1002D00013040103232EA4FC0325C4FDEF00D01B4F
:1002E0002326A4FE8327C4FE138507008320C102B2
:1002F000032481021301010367800000130101FB45
:10030000232611022324810213040103232EA4FCBB
:100310002322B4002324C4002326D4002328E4008D
:10032000232AF400232C0401232E14019307040232
:10033000232CF4FC832784FD938747FE2324F4FEBB
:10034000832784FE938507000325C4FDEF00C028A2
:100350002326A4FE8327C4FE138507008320C10241
:10036000032481021301010567800000130101FDD0
:10037000232611022324810213040103232EA4FC4B
:10038000232CB4FC232AC4FC232604FE032784FD6B
:100390009307A0006318F7028327C4FD63D4070204
:1003A0001305D002EF005009130705008327C4FE90
:1003B000B307F7002326F4FE8327C4FDB307F040FC
:1003C000232EF4FC832784FD0327C4FDB357F702D3
:1003D0002324F4FE832784FE63980700032744FD4B
:1003E0009307100063D8E702832744FD9387F7FF44
:1003F000232AF4FC032644FD832584FD032584FE83
:10040000EFF0DFF6130705008327C4FEB387E7008C
:100410002326F4FE832784FD0327C4FDB377F70268
:10042000138707009387810FB387E70083C707000F
:1004300013850700EF005000130705008327C4FE53
:10044000B307F7002326F4FE8327C4FE13850700B5
:100450008320C1020324810213010103678000008D
:10046000130101FD23261102232481021304010339
:10047000232EA4FC232CB4FC232404FE93050000AB
:100480000325C4FDEF30D0429307050063D6070271
:100490001305D002EF00407A13070500832784FE7E
:1004A000B307F7002324F4FE0327C4FDB707008039
:1004B000B347F700232EF4FC0325C4FDEF40C03EF4
:1004C000930705002322F4FE832744FE032684FDC0
:1004D0009305A00013850700EFF05FE913070500FF
:1004E000832784FEB387E7002324F4FE1305E0028C
:1004F000EF00807413070500832784FEB307F7001D
:100500002324F4FE032544FEEF4000419307050039
:10051000938507000325C4FDEF301076930705008F
:10052000232EF4FC232604FE83A541160325C4FDD7
:10053000EF30D04293070500232EF4FC0325C4FDC1
:10054000EF408036930705002322F4FE832744FE04
:1005500093F7F70F9387070393F7F70F13850700B8
:10056000EF00806D13070500832784FEB307F700B3
:100570002324F4FE032544FEEF40003A93070500D0
:10058000938507000325C4FDEF30106F9307050026
:10059000232EF4FC8327C4FE938717002326F4FE42
:1005A000930500000325C4FDEF30102A93070500D2
:1005B000638807000327C4FE93075000E3D6E7F6DD
:1005C000832784FE138507008320C1020324810250
:1005D0001301010367800000130101FC232E1102A7
:1005E000232C8102130401042326A4FC2324B4FC3D
:1005F000232004FE6F000030032784FE930750027F
:100600006310F72C8327C4FC83C707002324F4FE60
:10061000232604FE6F0040040327C4FE930707004F
:1006200093972700B387E700939717001387070076
:10063000832784FEB307F700938707FD2326F4FE84
:100640008327C4FC938717002326F4FC8327C4FC6C
:1006500083C707002324F4FE032784FE9307F002D8
:1006600063D8E700032784FE93079003E3D6E7FAF5
:100670008327C4FC138717002326E4FC83C70700E5
:100680002324F4FE032784FE930750026308F71E19
:10069000032784FE930750026340F720032784FE5C
:1006A0009307800763CAE71E032784FE930730067B
:1006B0006344F71E832784FE9387D7F913075001FD
:1006C000636CF71C139727009387C110B307F700DB
:1006D00083A7070067800700832784FC13874700F0
:1006E0002324E4FC83A70700A30BF4FC834774FDD9
:1006F00013850700EF00405413070500832704FE0D
:10070000B307F7002320F4FE6F00C01E832784FC8C
:10071000138747002324E4FC83A70700232EF4FC5F
:100720008327C4FD0326C4FE9305800013850700BC
:10073000EFF0DFC313070500832704FEB387E7004C
:100740002320F4FE6F00001B832784FC13874700DF
:100750002324E4FC83A70700232EF4FC8327C4FD95
:100760000326C4FE9305A00013850700EFF01FC009
:1007700013070500832704FEB387E7002320F4FE58
:100780006F004017832784FC138747002324E4FC71
:1007900083A70700232EF4FC8327C4FD0326C4FE91
:1007A0009305000113850700EFF05FBC13070500F8
:1007B000832704FEB387E7002320F4FE6F00801335
:1007C000832784FC138747002324E4FC83A70700C6
:1007D0002322F4FE6F008004832744FE83C70700B2
:1007E00013850700EF00404513070500832704FE2B
:1007F000B307F7002320F4FE832744FE03C7070056
:100800009307A0006316F7001305D000EF00C04265
:10081000832744FE938717002322F4FE832744FE98
:1008200083C70700E39A07FA6F00C00C832784FC94
:100830009387770093F787FF138787002324E4FCCF
:1008400003A7070083A74700130507009385070048
:10085000EF40803893070500232CF4FC8325C4FE69
:10086000032584FDEFF0DFBF13070500832704FE97
:10087000B387E7002320F4FE6F00C0071305500282
:10088000EF00803B13070500832704FEB307F70042
:100890002320F4FE6F00000613055002EF00C0395C
:1008A00013070500832704FEB307F7002320F4FE97
:1008B0008327C4FC9387F7FF2326F4FC6F00800393
:1008C000832784FE93F7F70F13850700EF00C036E8
:1008D00013070500832704FEB307F7002320F4FE67
:1008E000032784FE9307A0006316F7001305D000CA
:1008F000EF0080348327C4FC138717002326E4FC11
:1009000083C707002324F4FE832784FEE39607CEE3
:10091000832704FE138507008320C103032481037A
:100920001301010467800000130101FC232E110252
:10093000232C810213040104232EA4FC232CB4FCD9
:10094000232AC4FC2328D4FC2326E4FC8327C4FDEB
:1009500063960700EF00005B232EA4FC0327C4FD71
:10096000832784FDB357F70213850700EF30C06576
:10097000130705009387050003A6811683A6C116F9
:100980001305070093850700EF20806D130705000E
:10099000938705001305070093850700EF30005388
:1009A0009307050013870700B70701009387F7FF38
:1009B000B377F7002326F4FE032744FD9307800056
:1009C0006316F700930700006F008000B70701006F
:1009D0000327C4FEB3E7E7002326F4FE832704FDC4
:1009E00063960700930700006F008000B7070200BE
:1009F0000327C4FEB3E7E7002326F4FE032704FD24
:100A0000930710006316F700930700006F00800043
:100A1000B70704000327C4FEB3E7E7002326F4FE6C
:100A20000327C4FC930710006316F7009307000028
:100A30006F008000B70708000327C4FEB3E7E70094
:100A40002326F4FE83A7416E2324F4FE832784FE2D
:100A50000327C4FE23A0E700130000008320C10386
:100A6000032481031301010467800000130101FCCA
:100A7000232E1102232C810213040104232EA4FC33
:100A8000232CB4FC232AC4FC2328D4FC2326E4FC16
:100A90002324F4FC232204FD8327C4FD639607006E
:100AA000EF004046232EA4FC0327C4FD832784FDCA
:100AB000B357F70213850700EF3000511307050005
:100AC0009387050003A6811683A6C11613050700A8
:100AD00093850700EF20C058130705009387050092
:100AE0001305070093850700EF30403E930705008C
:100AF00013870700B70701009387F7FFB377F70065
:100B00002326F4FE032744FD930780006316F700B5
:100B1000930700006F008000B70701000327C4FEA1
:100B2000B3E7E7002326F4FE832704FD639607005E
:100B3000930700006F008000B70702000327C4FE80
:100B4000B3E7E7002326F4FE032704FD9307100014
:100B50006316F700930700006F008000B7070400DA
:100B60000327C4FEB3E7E7002326F4FE0327C4FCF3
:100B7000930710006316F700930700006F008000D2
:100B8000B70708000327C4FEB3E7E7002326F4FEF7
:100B9000832784FC63960700930700006F008000A2
:100BA000B70720000327C4FEB3E7E7002326F4FEBF
:100BB000832744FC63960700930700006F008000C2
:100BC000B70710000327C4FEB3E7E7002326F4FEAF
:100BD00083A7416E2324F4FE832784FE0327C4FEEB
:100BE00023A0E700130000008320C1030324810336
:100BF0001301010467800000130101FE232E810010
:100C00001304010283A7016F2324F4FE832784FECB
:100C100083A707002326F4FE8327C4FEE3D407FE40
:100C20008327C4FE93F7F70F138507000324C10140
:100C30001301010267800000130101FD23268102D8
:100C40001304010393070500A30FF4FC83A7C16EEF
:100C50002324F4FE832784FE83A707002326F4FEC3
:100C60008327C4FEE3C407FE8347F4FD2326F4FE76
:100C700083A7C16E2322F4FE832744FE0327C4FE0C
:100C800023A0E7008347F4FD138507000324C10276
:100C90001301010367800000130101FC232E810270
:100CA000130401042326A4FC232604FE6F00000481
:100CB00083A7C16E2320F4FE832704FE83A70700C9
:100CC0002322F4FE832744FEE3C407FE83A7C16EFC
:100CD000232EF4FC8327C4FD0347B4FE23A0E700C2
:100CE0008327C4FE938717002326F4FE8327C4FCC2
:100CF000138717002326E4FC83C70700A305F4FE2F
:100D00008347B4FEE39607FA8327C4FE13850700E2
:100D10000324C1031301010467800000130101FCD7
:100D2000232E1102232C8102130401042326A4FC88
:100D30000327C4FC9307A000B357F7022326F4FE51
:100D40008327C4FE638807008327C4FE138507003A
:100D5000EFF0DFFC0327C4FC9307A000B377F70292
:100D600093F7F70F93870703A305F4FE83A7C16EDC
:100D7000232AF4FC832744FD83A70700232CF4FCDB
:100D8000832784FDE3C407FE83A7C16E2328F4FCF8
:100D9000832704FD0347B4FE23A0E70013000000EF
:100DA0008320C10303248103130101046780000031
:100DB000130101FC232E1102232C810213040104D0
:100DC0002326A4FC8327C4FC93D747002324F4FEE6
:100DD000832784FE63880700832784FE138507002A
:100DE000EFF01FFD8327C4FC93F7F7002324F4FEE4
:100DF000032784FE9307900063CCE700832784FEDB
:100E000093F7F70F93870703A307F4FE6F004001E2
:100E1000832784FE93F7F70F93877703A307F4FEE6
:100E200083A7C16E2320F4FE832704FE83A7070057
:100E30002322F4FE832744FEE3C407FE83A7C16E8A
:100E4000232EF4FC8327C4FD0347F4FE23A0E70010
:100E5000130000008320C103032481031301010454
:100E600067800000130101FE232E8100130401029C
:100E700083A7816E2324F4FE832784FE83A70700C3
:100E80002326F4FE8327C4FE93F7E7FF2326F4FE10
:100E900083A7816E2322F4FE832744FE0327C4FE2A
:100EA00023A0E700130000000324C1011301010285
:100EB00067800000130101FE232E8100130401024C
:100EC00083A7816E2324F4FE832784FE83A7070073
:100ED0002326F4FE8327C4FE93F7D7FF2326F4FED0
:100EE00083A7816E2322F4FE832744FE0327C4FEDA
:100EF00023A0E700130000000324C1011301010235
:100F000067800000130101FE232E810013040102FB
:100F100083A7416F2324F4FE832784FE83A7070061
:100F20002326F4FE8327C4FE138507000324C10192
:100F30001301010267800000130101FE232E8100CE
:100F4000130401022326A4FE0327C4FE23ACE16C94
:100F50000327C4FE23AEE16C8327C4FE138747003A
:100F600023A0E16E8327C4FE1387070123A2E16E4D
:100F70008327C4FE1387470123A4E16E8327C4FEA1
:100F80001387870123A6E16E8327C4FE1387C70159
:100F900023A8E16E8327C4FE1387070223AAE16E0C
:100FA000130000000324C101130101026780000047
:100FB000130101FF232681001304010183A7816D22
:100FC000138507000324C10013010101678000009D
:100FD000130101FC232E1102232C810213040104AE
:100FE00093070500138705002324C4FCA307F4FC22
:100FF000930707002307F4FC832784FC639607000C
:10100000930700006F00401A8347F4FC9397170082
:1010100093F7F70F93E707302322F4FE83A70172BB
:1010200013870700832744FE2320F7000347E4FCCF
:10103000B717000093870720B367F7002322F4FE59
:1010400083A7017213870700832744FE2320F7003C
:101050008347F4FC9397170093F7F70F93E7173044
:101060002322F4FE83A7017213870700832744FE1F
:101070002320F700B7170000938707C02322F4FE50
:1010800083A7017213870700832744FE2320F700FC
:10109000930740002320F4FE832704FE93978701E3
:1010A00093E717002322F4FE83A7C171138707007B
:1010B000832744FE2320F70083A7C17183A707007D
:1010C000232EF4FC8327C4FD93F71700E39607FE55
:1010D0008327C4FD93D78701032704FE6306F70027
:1010E0009307F0FF6F00400C232604FE232404FE28
:1010F0006F00000583A7417283A70700232EF4FC2D
:101100008327C4FD93F70710639607028327C4FE65
:10111000938717002326F4FE8347F4FC8346E4FC00
:10112000032784FE138607009385C12C13850117BE
:10113000EFF0CF9C832784FE938717002324F4FECF
:10114000832704FE1387F7FF832784FEE3E4E7FA8F
:1011500083A7417283A70700232EF4FC8327C4FDD5
:1011600093F70710638007028327C4FE9387170055
:101170002326F4FE032684FE9385C12C1385411992
:10118000EFF0CF978327C4FD13F7F70F832784FC75
:101190002380E7008327C4FE638607009307F0FFE0
:1011A0006F00800093070000138507008320C103B0
:1011B000032481031301010467800000130101FC73
:1011C000232E1102232C810213040104930705002E
:1011D0002324C4FC13870600A307F4FC93870500AF
:1011E0002307F4FC93070700A306F4FC832784FC81
:1011F00063960700930700006F0080268347F4FC86
:101200009397170093F7F70F93E70730232EF4FC1B
:1012100083A70172138707008327C4FD2320F700EB
:101220000347E4FCB717000093870720B367F70074
:10123000232EF4FC83A70172138707008327C4FDC4
:101240002320F7008347F4FC9397170093F7F70FD9
:1012500093E71730232EF4FC83A70172138707004E
:101260008327C4FD2320F700A30704FE6F0080023C
:1012700093070040232EF4FC83A701721387070015
:101280008327C4FD2320F7008347F4FE93871700CC
:10129000A307F4FE0347F4FE8347D4FC9387F7FFCC
:1012A000E348F7FCB7170000938707C0232EF4FC30
:1012B00083A70172138707008327C4FD2320F7004B
:1012C0008347D4FC93873700232CF4FC832784FDC9
:1012D0009397870193E71700232EF4FC83A7C1712E
:1012E000138707008327C4FD2320F70083A7C1715C
:1012F00083A70700232AF4FC832744FD93F71700F4
:10130000E39607FE832744FD93D78701032784FDD7
:101310006306F7009307F0FF6F008014232404FE98
:10132000232204FE6F00000583A7417283A70700F4
:10133000232AF4FC832744FD93F7071063960702E2
:10134000832784FE938717002324F4FE8347F4FC4D
:101350008346E4FC032744FE138607009385C12DD2
:1013600013850117EFE09FF9832744FE9387170049
:101370002322F4FE032744FE93072000E3D6E7FA76
:10138000A30104FEA30104FE6F00800683A741723F
:1013900083A70700232AF4FC832744FD93F7071053
:1013A00063960702832784FE938717002324F4FEA5
:1013B000034734FE832744FEB307F7001386070074
:1013C0009385C12D1385811CEFE05FF3834734FEC5
:1013D000032784FCB307F700032744FD1377F70FB7
:1013E0002380E700834734FE93871700A301F4FEB0
:1013F000034734FE8347D4FC9387F7FFE348F7F8AD
:1014000083A7417283A70700232AF4FC832744FDA6
:1014100093F7071063800702832784FE93871700E2
:101420002324F4FE032644FE9385C12D1385411920
:10143000EFE0DFEC834734FE032784FCB307F700BB
:10144000032744FD1377F70F2380E700832784FEEB
:10145000638607009307F0FF6F008000930700008A
:10146000138507008320C1030324810313010104B2
:1014700067800000130101FC232E1102232C81023E
:101480001304010493070500938605001307060063
:10149000A307F4FC938706002307F4FC93070700D7
:1014A000A306F4FC8347F4FC9397170093F7F70F18
:1014B00093E707302322F4FE83A701721387070006
:1014C000832744FE2320F7008347E4FC93E70720AB
:1014D0002322F4FE83A7017213870700832744FEAB
:1014E0002320F7000347D4FCB7170000938707A019
:1014F000B367F7002322F4FE83A701721387070066
:10150000832744FE2320F700930730002320F4FEB6
:10151000832704FE9397870193E717002322F4FEA5
:1015200083A7C17113870700832744FE2320F70098
:1015300083A7C17183A70700232EF4FC8327C4FD72
:1015400093F71700E39607FE8327C4FD93D787011F
:10155000032704FE6306F7009307F0FF6F00C00740
:10156000232604FE232404FE6F00000583A7417296
:1015700083A70700232EF4FC8327C4FD93F70710ED
:10158000639607028327C4FE938717002326F4FE81
:101590008347F4FC8346E4FC032784FE138607009C
:1015A0009385C12E13850117EFE05FD5832784FE55
:1015B000938717002324F4FE832784FE032704FE69
:1015C000E3E6E7FA8327C4FE638607009307F0FF8C
:1015D0006F00800093070000138507008320C1037C
:1015E000032481031301010467800000130101FC3F
:1015F000232E1102232C81021304010493070500FA
:101600002324C4FC13870600A307F4FC938705007A
:101610002307F4FC93070700A306F4FC8347F4FCBC
:101620009397170093F7F70F93E707302320F4FE03
:1016300083A7017213870700832704FE2320F70086
:101640008347E4FC93E707202320F4FE83A701727D
:1016500013870700832704FE2320F700A30704FE57
:101660006F0080038347F4FE032784FCB307F70071
:1016700083C7070093E707202320F4FE83A70172A6
:1016800013870700832704FE2320F7008347F4FE17
:1016900093871700A307F4FE0347F4FE8347D4FCA7
:1016A0009387F7FFE340F7FC8347F4FE032784FCAE
:1016B000B307F70083C7070013870700B7170000B9
:1016C000938707A0B367F7002320F4FE83A7017276
:1016D00013870700832704FE2320F7008347D4FCE9
:1016E00093872700232EF4FC8327C4FD939787015B
:1016F00093E717002320F4FE83A7C1711387070027
:10170000832704FE2320F70083A7C17183A7070066
:10171000232CF4FC832784FD93F71700E39607FE40
:10172000832784FD93D787010327C4FD6306F70051
:101730009307F0FF6F00C007232404FE232204FE5A
:101740006F00000583A7417283A70700232CF4FCD8
:10175000832784FD93F7071063960702832784FE8F
:10176000938717002324F4FE8347F4FC8346E4FCAC
:10177000032744FE138607009385C12F13850117A5
:10178000EFE0DFB7832744FE938717002322F4FEA0
:10179000832744FE0327C4FDE3E6E7FA832784FE9C
:1017A000638607009307F0FF6F0080009307000037
:1017B000138507008320C10303248103130101045F
:1017C00067800000130101FC232E1102232C8102EB
:1017D0001304010493070500138705002324C4FCA8
:1017E000A307F4FC930707002316F4FC832784FC6B
:1017F00063960700930700006F00401D8347F4FCC9
:101800009397170093F7F70F93E707302322F4FE1F
:1018100083A7017213870700832744FE2320F70064
:101820008357C4FC93D787009397070193D7070189
:1018300093F7F70F93E707202322F4FE83A70172A3
:1018400013870700832744FE2320F7008357C4FC37
:1018500013F7F70FB717000093870720B367F70058
:101860002322F4FE83A7017213870700832744FE17
:101870002320F7008347F4FC9397170093F7F70FA3
:1018800093E717302322F4FE83A701721387070022
:10189000832744FE2320F700B7170000938707C073
:1018A0002322F4FE83A7017213870700832744FED7
:1018B0002320F700930750002320F4FE832704FE23
:1018C0009397870193E717002322F4FE83A7C17142
:1018D00013870700832744FE2320F70083A7C171E5
:1018E00083A70700232EF4FC8327C4FD93F717007A
:1018F000E39607FE8327C4FD93D78701032704FEE1
:101900006306F7009307F0FF6F00400C232604FEE8
:10191000232404FE6F00000583A7417283A70700FC
:10192000232EF4FC8327C4FD93F707106396070268
:101930008327C4FE938717002326F4FE8347F4FC15
:101940008356C4FC032784FE138607009385C130A9
:1019500013850117EFE09F9A832784FE9387170072
:101960002324F4FE832704FE1387F7FF832784FED6
:10197000E3E4E7FA83A7417283A70700232EF4FC70
:101980008327C4FD93F70710638007028327C4FEF3
:10199000938717002326F4FE032684FE9385C13027
:1019A00013854119EFE09F958327C4FD13F7F70FC7
:1019B000832784FC2380E7008327C4FE6386070017
:1019C0009307F0FF6F008000930700001385070066
:1019D0008320C103032481031301010467800000F5
:1019E000130101FC232E1102232C81021304010494
:1019F000930705002324C4FC13870600A307F4FC07
:101A0000938705002316F4FC930707002307F4FCD3
:101A1000832784FC63960700930700006F008029EA
:101A20008347F4FC9397170093F7F70F93E707307A
:101A3000232EF4FC83A70172138707008327C4FDBC
:101A40002320F7008357C4FC93D78700939707019F
:101A500093D7070193F7F70F93E70720232EF4FCA2
:101A600083A70172138707008327C4FD2320F70093
:101A70008357C4FC13F7F70FB717000093870720AD
:101A8000B367F700232EF4FC83A7017213870700C6
:101A90008327C4FD2320F7008347F4FC93971700A6
:101AA00093F7F70F93E71730232EF4FC83A7017207
:101AB000138707008327C4FD2320F700A30704FE34
:101AC0006F00800293070040232EF4FC83A701726D
:101AD000138707008327C4FD2320F7008347F4FE04
:101AE00093871700A307F4FE0347F4FE8347E4FC43
:101AF0009387F7FFE348F7FCB7170000938707C009
:101B0000232EF4FC83A70172138707008327C4FDEB
:101B10002320F7008347E4FC93874700232CF4FC41
:101B2000832784FD9397870193E71700232EF4FC06
:101B300083A7C171138707008327C4FD2320F70003
:101B400083A7C17183A70700232AF4FC832744FDE0
:101B500093F71700E39607FE832744FD93D7870189
:101B6000032784FD6306F7009307F0FF6F008014DE
:101B7000232404FE232204FE6F00000583A7417284
:101B800083A70700232AF4FC832744FD93F707105B
:101B900063960702832784FE938717002324F4FEAD
:101BA0008347F4FC8356C4FC032744FE13860700D6
:101BB0009385C13113850117EFE04FF4832744FE6D
:101BC000938717002322F4FE032744FE9307300077
:101BD000E3D6E7FAA30104FEA30104FE6F0080062A
:101BE00083A7417283A70700232AF4FC832744FDBF
:101BF00093F7071063960702832784FE93871700E5
:101C00002324F4FE034734FE832744FEB307F70082
:101C1000138607009385C1311385811CEFE00FEE19
:101C2000834734FE032784FCB307F700032744FDF2
:101C30001377F70F2380E700834734FE938717005D
:101C4000A301F4FE034734FE8347E4FC9387F7FFC8
:101C5000E348F7F883A7417283A70700232AF4FC1F
:101C6000832744FD93F7071063800702832784FED0
:101C7000938717002324F4FE032644FE9385C13185
:101C800013854119EFE08FE7834734FE032784FC77
:101C9000B307F700032744FD1377F70F2380E7000E
:101CA000832784FE638607009307F0FF6F008000A0
:101CB00093070000138507008320C10303248103D9
:101CC0001301010467800000130101FC232E11029F
:101CD000232C810213040104930705009386050059
:101CE00013070600A307F4FC938706002316F4FCF1
:101CF000930707002307F4FC8347F4FC939717002E
:101D000093F7F70F93E707302322F4FE83A70172BE
:101D100013870700832744FE2320F7008357C4FC62
:101D200093D787009397070193D7070193F7F70F8E
:101D300093E707202322F4FE83A70172138707008D
:101D4000832744FE2320F7008357C4FC93F7F70F43
:101D500093E707202322F4FE83A70172138707006D
:101D6000832744FE2320F7000347E4FCB717000055
:101D7000938707A0B367F7002322F4FE83A70172BD
:101D800013870700832744FE2320F70093074000B2
:101D90002320F4FE832704FE9397870193E717001F
:101DA0002322F4FE83A7C17113870700832744FE13
:101DB0002320F70083A7C17183A70700232EF4FC1B
:101DC0008327C4FD93F71700E39607FE8327C4FD1E
:101DD00093D78701032704FE6306F7009307F0FFFC
:101DE0006F00C007232604FE232404FE6F000005B5
:101DF00083A7417283A70700232EF4FC8327C4FD29
:101E000093F70710639607028327C4FE9387170092
:101E10002326F4FE8347F4FC8356C4FC032784FE88
:101E2000138607009385C13213850117EFE00FCDAC
:101E3000832784FE938717002324F4FE832784FEE0
:101E4000032704FEE3E6E7FA8327C4FE6386070060
:101E50009307F0FF6F0080009307000013850700D1
:101E60008320C10303248103130101046780000060
:101E7000130101FC232E1102232C810213040104FF
:101E8000930705002324C4FC13870600A307F4FC72
:101E9000938705002316F4FC930707002307F4FC3F
:101EA0008347F4FC9397170093F7F70F93E70730F6
:101EB0002320F4FE83A7017213870700832704FE03
:101EC0002320F7008357C4FC93D78700939707011B
:101ED00093D7070193F7F70F93E707202320F4FE2A
:101EE00083A7017213870700832704FE2320F700CE
:101EF0008357C4FC93F7F70F93E707202320F4FEE2
:101F000083A7017213870700832704FE2320F700AD
:101F1000A30704FE6F0080038347F4FE032784FCBD
:101F2000B307F70083C7070093E707202320F4FED9
:101F300083A7017213870700832704FE2320F7007D
:101F40008347F4FE93871700A307F4FE0347F4FECC
:101F50008347E4FC9387F7FFE340F7FC8347F4FEF5
:101F6000032784FCB307F70083C707001387070024
:101F7000B7170000938707A0B367F7002320F4FE8C
:101F800083A7017213870700832704FE2320F7002D
:101F90008347E4FC93873700232EF4FC8327C4FD9A
:101FA0009397870193E717002320F4FE83A7C1715D
:101FB00013870700832704FE2320F70083A7C1713E
:101FC00083A70700232CF4FC832784FD93F71700D5
:101FD000E39607FE832784FD93D787010327C4FD7B
:101FE0006306F7009307F0FF6F00C007232404FE89
:101FF000232204FE6F00000583A7417283A7070018
:10200000232CF4FC832784FD93F7071063960702C3
:10201000832784FE938717002324F4FE8347F4FC70
:102020008356C4FC032744FE138607009385C133FF
:1020300013850117EFE08FAC832744FE93871700C9
:102040002322F4FE832744FE0327C4FDE3E6E7FAD8
:10205000832784FE638607009307F0FF6F008000EC
:1020600093070000138507008320C1030324810325
:102070001301010467800000130101FE232E81007B
:102080001304010283A7017083A707002326F4FE2F
:102090000327C4FEB7070080B367F7002324F4FECC
:1020A00083A7017013870700832784FE2320F7008E
:1020B0000327C4FEB70700809387F7FFB377F700C5
:1020C0002324F4FE83A7017013870700832784FE6F
:1020D0002320F70093070000138507000324C101A4
:1020E0001301010267800000130101FE232E81000D
:1020F0001304010283A7017083A707002326F4FEBF
:102100008327C4FE93E717002324F4FE83A70170FE
:1021100013870700832784FE2320F700930700001E
:10212000138507000324C101130101026780000029
:10213000130101FE232E81001304010283A7017005
:1021400083A707002326F4FE8327C4FE93F7E7FF47
:102150002324F4FE83A7017013870700832784FEDE
:102160002320F70093070000138507000324C10113
:102170001301010267800000130101FD2326810283
:1021800013040103232EA4FC8327C4FD93F7F70057
:102190002326F4FE83A7C170138707008327C4FE9C
:1021A0002320F7008327C4FD13F7F70023A0E1766F
:1021B00093070000138507000324C10213010103E4
:1021C00067800000130101FD2326110223248102F0
:1021D00013040103232EA4FC232CB4FC232AC4FCE7
:1021E0002328D4FC0327C4FD9307F00063E4E7022F
:1021F000032784FD9307F00063EEE700032744FD07
:102200009307F00063E8E700032704FD9307F0005D
:1022100063F6E7009307F0FF6F008006EFF05FF1D1
:102220008327C4FD1397C700B70701009387F7FF03
:102230003377F700832784FD93968700B717000054
:10224000938707F0B3F7F6003367F700832744FD61
:102250009397470093F7F70F3367F700832704FD41
:1022600093F7F700B367F7002326F4FE83A7817086
:10227000138707008327C4FE2320F700930700007D
:10228000138507008320C102032481021301010387
:1022900067800000130101FC232E1102232C810210
:1022A000232A210323283103130401042326A4FC39
:1022B000EFF01FE883A7417083A707002326F4FEF1
:1022C0008327C4FE93D7870013F7F70F23A6E17285
:1022D0008327C4FE93D7070113F7F70F23A4E172F6
:1022E00083A7017183A707002326F4FE8327C4FE7A
:1022F0002324F4FE032584FEEF10104D130905007E
:10230000938905000325C4FCEF10104C130705004A
:10231000938705001306070093860700130509003D
:1023200093850900EF10004D130705009387050002
:10233000130507009385070003A6013583A64135E1
:10234000EF00105213070500938705002320E4FED9
:102350002322F4FE032504FE832544FEEF10103FE4
:1023600093070500232EF4FC83A741711387070010
:102370008327C4FC2320F70083A7817113870700FC
:102380008327C4FD2320F70093070000138507006F
:102390008320C1030324810303294103832901030B
:1023A0001301010467800000130101FD232681024F
:1023B00013040103232EA4FC232CB4FC832784FDE7
:1023C00063960700930700006F0000028327C4FD97
:1023D00083A707002326F4FE832784FD0327C4FE7A
:1023E00023A0E70093070000138507000324C10220
:1023F0001301010367800000130101FE232E8100F9
:10240000130401022326A4FE2324B4FE8327C4FE62
:10241000032784FE23A0E70093070000138507002D
:102420000324C1011301010267800000130101FEB2
:10243000232E1100232C81001304010283A7C16FF6
:1024400083A707002326F4FE8325C4FE1385011EFF
:10245000EFD0DFEA83A7017083A707002326F4FEED
:102460008325C4FE1385411FEFD05FE983A7417028
:1024700083A707002326F4FE8325C4FE138581204D
:10248000EFD0DFE783A7817083A707002326F4FE40
:102490008325C4FE1385C121EFD05FE683A7C170F9
:1024A00083A707002326F4FE8325C4FE138501239A
:1024B000EFD0DFE483A7017183A707002326F4FE92
:1024C0000325C4FEEF20C0559307050013850700C0
:1024D000EF20C062130705009387050003A681352E
:1024E00083A6C1351305070093850700EF108030E0
:1024F000130705009387050013060700938607005E
:102500008325C4FE13854124EFD05FDF83A741718B
:1025100083A707002326F4FE0325C4FEEF204050C6
:102520009307050013850700EF20405D13070500A2
:102530009387050003A6013683A6413613050700DD
:1025400093850700EF10002B130705009387050004
:1025500013060700938607008325C4FE1385012612
:10256000EFD0DFD983A7817183A707002326F4FE6C
:102570008325C4FE1385C127EFD05FD883A7C1711F
:1025800083A707002326F4FE8325C4FE13850129B3
:10259000EFD0DFD683A7017283A707002326F4FEBE
:1025A0008325C4FE1385412AEFD05FD583A74172EE
:1025B00083A707002326F4FE8325C4FE1385812B01
:1025C000EFD0DFD393070000138507008320C101FC
:1025D000032481011301010267800000130101FD42
:1025E0002326810213040103232EA4FC232CB4FC14
:1025F000232AC4FC2328D4FC83A7817083A7070067
:102600002326F4FE8327C4FD638C07008327C4FEC2
:1026100093D7C70013F7F7008327C4FD23A0E70073
:10262000832784FD638C07008327C4FE93D787002C
:1026300013F7F700832784FD23A0E700832744FDD9
:10264000638C07008327C4FE93D7470013F7F70076
:10265000832744FD23A0E700832704FD638A070046
:102660008327C4FE13F7F700832704FD23A0E700A8
:1026700093070000138507000324C102130101031F
:1026800067800000130101FE232E81001304010264
:1026900083A7417083A707002326F4FE0327C4FE07
:1026A000B7070040B377F700138507000324C10183
:1026B0001301010267800000130101FE232E810037
:1026C0001304010283A7C17083A707002326F4FE29
:1026D0008327C4FE93F7F700138507000324C10185
:1026E0001301010267800000130101FE232E810007
:1026F0001304010283A7017183A707002326F4FEB8
:102700008327C4FE138507000324C10113010102BE
:1027100067800000130101FE232E810013040102D3
:1027200083A7817183A707002326F4FE8327C4FEB5
:10273000138507000324C101130101026780000013
:10274000130101FE232E8100130401022326A4FE9F
:102750000327C4FE23ACE16E0327C4FE23AEE16E63
:102760008327C4FE1387470023A0E1708327C4FE9C
:102770001387870023A2E1708327C4FE1387C70055
:1027800023A4E1708327C4FE1387070123A6E17009
:102790008327C4FE1387070223A8E1708327C4FEA2
:1027A0001387470223AAE1708327C4FE1387870299
:1027B00023ACE1708327C4FE1387070323AEE170C7
:1027C0008327C4FE1387070423A0E1728327C4FE76
:1027D0001387070523A2E172930700001385070002
:1027E0000324C1011301010267800000130101FFEE
:1027F000232681001304010183A7816F138507003D
:102800000324C1001301010167800000130101FED0
:10281000232E81001304010283A7017483A70700FC
:102820002326F4FE8327C4FE138507000324C10179
:102830001301010267800000130101FE232E8100B5
:10284000130401022326A4FE83A741741387070003
:102850008327C4FE2320F700130000000324C101D6
:102860001301010267800000130101FD232681028C
:1028700013040103232EA4FC232CB4FC232AC4FC40
:102880002328D4FC232604FE83A7C17313870700E3
:102890008327C4FD2320F70083A741741387070013
:1028A0008327C4FE2320F70083A701751387070041
:1028B000832784FD2320F70083A741751387070032
:1028C000832744FD2320F700832704FD93C7F7FFE8
:1028D0002326F4FE83A78174138707008327C4FE91
:1028E0002320F700130000000324C1021301010399
:1028F00067800000130101FD2326810213040103F8
:10290000232EA4FC8327C4FD93C7F7FF2326F4FEE0
:1029100083A78174138707008327C4FE2320F70051
:1029200083A7817483A707002326F4FE8327C4FEB0
:10293000138507000324C10213010103678000000F
:10294000130101FE232E8100130401022326A4FE9D
:1029500083A70175138707008327C4FE2320F70090
:1029600083A7017583A707002326F4FE8327C4FEEF
:10297000138507000324C1011301010267800000D1
:10298000130101FE232E8100130401022326A4FE5D
:1029900083A74175138707008327C4FE2320F70010
:1029A00083A7417583A707002326F4FE8327C4FE6F
:1029B000138507000324C101130101026780000091
:1029C000130101FE232E81001304010283A7C174A9
:1029D00083A707002326F4FE8327C4FE1385070080
:1029E0000324C1011301010267800000130101FDEE
:1029F0002326810213040103232EA4FC83A7C174A0
:102A000083A707002326F4FE0327C4FE8327C4FD03
:102A1000B377F7002326F4FE83A7C174138707005A
:102A20008327C4FE2320F70083A7C17483A7070070
:102A3000232EF4FC8327C4FD138507000324C10261
:102A40001301010367800000130101FE232E110012
:102A5000232C81001304010283A7417383A707007D
:102A60002326F4FE8325C4FE13858136EFD01F890B
:102A700083A7817383A707002326F4FE8325C4FE62
:102A800013850138EFD09F8783A7C17383A7070001
:102A90002326F4FE8325C4FE13858139EFD01F86DB
:102AA00083A7017483A707002326F4FE8325C4FEB1
:102AB0001385013BEFD09F8483A7417483A7070050
:102AC0002326F4FE8325C4FE1385813CEFD01F83AB
:102AD00083A7817483A707002326F4FE8325C4FE01
:102AE0001385013EEFD09F8183A7C17483A70700A0
:102AF0002326F4FE8325C4FE1385813FEFD01F807B
:102B000083A7017583A707002326F4FE8325C4FE4F
:102B100013850141EFD08FFE83A7417583A707007E
:102B20002326F4FE8325C4FE13858142EFD00FFDDA
:102B3000130000008320C10103248101130101025D
:102B400067800000130101FE232E8100130401029F
:102B50002326A4FE0327C4FE23A8E1720327C4FE94
:102B600023AAE1728327C4FE1387470023ACE172D6
:102B70008327C4FE1387070123AEE1728327C4FEB7
:102B80001387470123A0E1748327C4FE13878701BD
:102B900023A2E1748327C4FE1387C70123A4E17431
:102BA0008327C4FE1387070223A6E1748327C4FE8C
:102BB0001387470223A8E1748327C4FE1387870283
:102BC00023AAE17493070000138507000324C101C1
:102BD0001301010267800000130101FF2326810019
:102BE0001304010183A70173138507000324C100A7
:102BF0001301010167800000130101FE232E110063
:102C0000232C81001304010293070005A307F4FE9F
:102C10009307F0FF2307F4FE0347E4FE8347F4FE27
:102C2000130607009305000013850700EFE09F845B
:102C3000930705006398070213850144EFD00FEC5A
:102C40000347E4FE8347F4FE1306070093051000D4
:102C500013850700EFE01F829307050063940702C6
:102C60006F00000113850146EFD04FE96F0040026D
:102C70001385C147EFD08FE81385C149EFD00FE826
:102C80006F00000113850146EFD04FE713000000ED
:102C90008320C10103248101130101026780000028
:102CA000130101FE232E1100232C810013040102C5
:102CB000A30604FE93077003A307F4FE9307000521
:102CC0002307F4FE1385C14BEFD04FE30347F4FE17
:102CD0008347E4FE130607009305000013850700F1
:102CE000EFE04FF993070500639C07008347F4FE6C
:102CF000938507001385814DEFD04FE06F00C00032
:102D00001385414FEFD08FDF232404FE6F000001B5
:102D1000832784FE938717002324F4FE032784FE71
:102D2000B79798009387F767E3D4E7FE1307D4FEBD
:102D30008347E4FE13060700930500001385070090
:102D4000EFE00FA993070500639C07008347D4FEBB
:102D5000938507001385C150EFD04FDA6F00C00094
:102D60001385C152EFD08FD98347D4FE0347F4FEB9
:102D70006318F70013850154EFD04FD86F00C000DF
:102D80001385C155EFD08FD7130000008320C101F8
:102D9000032481011301010267800000130101FE79
:102DA000232E1100232C8100130401022326A4FEEC
:102DB0000327C4FE23ACE1740325C4FEEFF09FD8C3
:102DC0001305000FEFF05FA7130000008320C1017F
:102DD000032481011301010267800000130101FD3A
:102DE00023261102232481021304010383A7817582
:102DF00013850700EFF01FD5232604FE6F00C00CDB
:102E00008327C4FE9387470013071000B317F7000A
:102E100093C7F7FF93F7070F2322F4FE032544FE21
:102E2000EFF09FA19307803E232CF4FC13000000D9
:102E3000832784FD1387F7FF232CE4FCE39A07FE26
:102E4000EFF0DF9C2320A4FE832704FE93D74700E6
:102E500093F7F700232EF4FC0327C4FD9307F0003B
:102E6000630EF704232404FE6F008004832784FE8E
:102E700013071000B317F700138707008327C4FD5B
:102E8000B377F700639007021305000FEFF0DF9AA6
:102E90008327C4FE13972700832784FEB307F70018
:102EA0006F000004832784FE938717002324F4FE19
:102EB000032784FE93073000E3DAE7FA8327C4FE92
:102EC000938717002326F4FE0327C4FE93073000E0
:102ED000E3D8E7F21305000FEFF01F969307F0FF1A
:102EE000138507008320C10203248102130101031B
:102EF00067800000130101FE232E1100232C8100A6
:102F000013040102EFF09FED2326A4FE8327C4FEE5
:102F100063C207060327C4FE9307F00063CCE704EF
:102F20008327C4FE13D7F74113773700B307F700A1
:102F300093D727402324F4FE0327C4FE9357F74179
:102F400093D7E7013307F70013773700B307F7404C
:102F50002322F4FE13878157832784FE939727004B
:102F60003307F700832744FEB307F70083C7070042
:102F70006F00800093070000138507008320C101C4
:102F8000032481011301010267800000130101FD88
:102F90002326810213040103232EA4FC0327C4FD6E
:102FA000B78701009387076AB307F7022326F4FE69
:102FB0006F008000130000008327C4FE1387F7FF13
:102FC0002326E4FEE39807FE130000001300000030
:102FD0000324C1021301010367800000130101FEF5
:102FE000232E1100232C810013040102EFF09FF027
:102FF00093070500A307F4FE8347F4FE63820704EA
:1030000013052003EFF09FF8EFF0DFEE93070500C4
:103010002307F4FE0347E4FE8347F4FE6312F7023E
:103020006F00C0001305A000EFF05FF6EFF09FEC1B
:1030300093070500E39807FE8347F4FE6F00000145
:103040001305A000EFF09FF46FF05FFA13850700FF
:103050008320C10103248101130101026780000064
:10306000370810001308F8FF130101FEB378B80009
:1030700013D745019357D5013378D800232A9100FF
:103080009374F77F1397380093D8460113183800CC
:1030900023282101B3E7E70093F8F87F1357D601FF
:1030A000232E1100232C81002326310113D9F50191
:1030B00093D6F60133670701131535001316360052
:1030C00033881441631AD92A635C001163900804A1
:1030D000B366C700638006669305F8FF6390050238
:1030E0003306C500B336A6003387E7001305060094
:1030F000B307D700930410006F00C0069306F07F5B
:103100006310D8029304F07F6F00801F9306F07F56
:103110006388D41EB70680003367D7009305080084
:103120009306800363C8B60A9306F00163CAB60625
:10313000130800023308B840B3160701B358B600AD
:1031400033180601B3E6160133380001B3E6060171
:10315000B355B7003385A600B385F500B336D50067
:10316000B387D50013978700635C07189384140016
:103170001307F07F638AE45A370780FF1307F7FFCE
:1031800033F7E7009357150013751500B3E7A70051
:103190001315F7013365F500935717006F004016BC
:1031A000938605FE93080002B356D700130800006B
:1031B00063881501130800043308B8403318070169
:1031C0003368C80033380001B3E6060193050000F8
:1031D0006FF05FF8B366C700B336D0006FF01FFF23
:1031E000630A080CB386984063940402B3E5A70011
:1031F000638E05509385F6FFE38405EE1308F07F98
:103200006392060393070700130506006FF09FEF14
:103210009305F07FE388B8FEB7058000B3E7B700F9
:10322000938506009306800363C0B6089306F001F9
:1032300063C2B604130800023308B840B39607010E
:103240003353B50033180501B3E666003338000187
:10325000B3E60601B3D5B7003386C600B385E500F3
:10326000B336D60013050600B387D5009384080053
:103270006FF05FEF938605FE13030002B3D6D7000D
:103280001308000063886500130800043308B84081
:10329000339807013368A80033380001B3E606010C
:1032A000930500006FF05FFBB3E6A700B336D000D4
:1032B0006FF01FFF9386140093F5E67F6396050871
:1032C000B3E6A7006392040663880644B366C700AA
:1032D000638806023306C500B336A6003387E700CD
:1032E000B307D7001397870013050600635A07003A
:1032F000370780FF1307F7FFB3F7E70093041000C9
:1033000013777500630807441377F50093064000B0
:103310006302D74413074500B336A700B387D7002D
:10332000130507006F000043E38E06EC3366C70009
:10333000E30A06DC13090000B7074000130500008C
:103340009304F07F6F0000419305F07F638CB63CDF
:103350003306C5003335A6003387E7003307A700DF
:103360001315F701135616003365C5009357170060
:10337000938406006FF0DFF8635C000F639E08081B
:10338000B366C7006388063A9306F8FF63900602A7
:103390003306C540B336C5003387E7401305060042
:1033A000B307D740930410006F0040059305F07FEA
:1033B000E30AB8D49305800363C6D50A9305F001E8
:1033C00063C8D506130800023308D840B358D600A6
:1033D000B315070133180601B3E5150133380001B1
:1033E00033E60501B356D7003306C5403337C50071
:1033F000B386D74013050600B387E64013978700CE
:10340000E35007F0370480001304F4FF33F487001F
:10341000930905006F0000219306F07FE382D4EE4C
:10342000B70680003367D700930608006FF09FF857
:10343000938506FE93080002B355B70013080000F9
:1034400063881601130800043308D84033180701B5
:103450003368C8003338000133E6050193060000E5
:103460006FF09FF83366C7003336C0006FF01FFF60
:103470006308080E3388984063920404B3E5A700FC
:10348000638E052A9305F8FF639E05003305A64069
:103490003307F7403336A600B307C7401389060049
:1034A0006FF05FF01303F07F631468029307070067
:1034B000130506009304F07F6F00000D9305F07F65
:1034C000E386B8FEB7058000B3E7B70093050800B0
:1034D000130880036340B8081308F0016342B8047E
:1034E000130300023303B340335EB5003398670023
:1034F000331365003368C8013333600033656800F7
:10350000B3D5B7003305A640B305B7403336A600A0
:10351000B387C54093840800138906006FF01FEE3F
:10352000138805FE130E000233D8070113030000B1
:103530006388C501130300043303B340339367006A
:103540003363A300333360003365680093050000E4
:103550006FF05FFB33E5A7003335A0006FF01FFF6E
:103560009385140093F5E57F6396050833E8A7007B
:10357000B365C70063900406631C0800638E0510E2
:103580009307070013050600138906006FF05FD745
:10359000E38805D63308C540B3380501B385E74055
:1035A000B38515419398850063DC08003305A64078
:1035B0003307F7403336A600B307C7406FF0DFFC90
:1035C0003365B800630405189387050013050800E8
:1035D0006FF01FD3631C0800E38E05D49307070028
:1035E00013050600138906006FF0DFB1E38C05B008
:1035F0006FF05FD4B305C5403338B5003384E7407E
:1036000033040441131884009389050063500808AB
:10361000B309A6403304F740333636013304C440BF
:1036200013890600630E040613050400EF104072B0
:10363000930685FF93070002B387D7403314D40065
:10364000B3D7F900B3E787003394D90063C4960A6F
:10365000B3869640138616001307F0016342C7062F
:10366000130700023307C7403395E700B356C40081
:103670003317E4003365D5003337E0003365E500E8
:10368000B3D7C700930400006FF09FC7B3E5850070
:10369000E39A05F893040000130900006F00C008C6
:1036A00013850900EF10C06A930685019307F001A6
:1036B000E3D2D7F8930785FFB397F9006FF01FF9AE
:1036C000938616FE33D5D700930600021307000039
:1036D0006308D600130700043307C7403397E70099
:1036E0003367E4003337E0003365E50093070000FB
:1036F0006FF05FF9370780FF1307F7FFB384D440FB
:10370000B3F7E700130504006FF09FBF93070700AE
:10371000130506006FF0DFC59307070013050600C9
:103720006FF01FBE9304F07F9307000013050000A5
:103730006F004002930408006FF09FBC93070700DE
:1037400013050600930408006FF01FE493070000C0
:103750001309000013978700635E07009384140029
:103760001307F07F6382E408370780FF1307F7FF32
:10377000B3F7E7009396D701135535001307F07F91
:10378000B3E6A60093D73700639EE400B3E6F600E5
:103790009307000063880600B7070800930600003F
:1037A00013090000139744013706F07F9397C70071
:1037B0003377C7008320C1010324810193D7C70059
:1037C000B367F7001317F90133E6E70083244101DB
:1037D000032901018329C100138506009305060012
:1037E0001301010267800000930700001305000029
:1037F0006FF05FF8130101FD13D8450123229102F8
:1038000023202103232E3101232861012326710166
:103810009394C5002326110223248102232C410105
:10382000232A51011378F87F130B0500930B060030
:103830001389060093D4C40093D9F501630E0808D8
:103840009307F07F630EF80E135AD501939434005A
:10385000336A9A00B7078000336AFA001314350000
:10386000930A18C0130B0000135749019314C900A1
:103870001377F77F93D4C4001359F901630007103D
:103880009307F07F6304F7169394340093D7DB011A
:10389000B3E79700B7048000B3E49700139F3B00A1
:1038A000130717C0930700003388EA4013172B0053
:1038B0003367F7001307F7FF9306E00033C62901CB
:1038C00063E2E61613172700938681583307D70063
:1038D000032707006700070033EAA400630E0A0607
:1038E000638E040213850400EF108046930755FF92
:1038F000130AD001130785FF330AFA40B394E4009A
:10390000335A4B01336A9A00B314EB001308D0C04A
:10391000B30AA840138404006FF0DFF4EF104043B3
:10392000130A050093075A011307C0011305050286
:10393000E350F7FC130A8AFF331A4B016FF01FFDA7
:1039400033EAA40063120A0213040000930AF07F12
:10395000130B20006FF05FF113040000930A0000C6
:10396000130B10006FF05FF013040500138A0400BE
:10397000930AF07F130B30006FF01FEF33EF7401E9
:1039800063020F086380040413850400EF10403CB9
:10399000130755FF9307D001930685FFB387E740D0
:1039A000B394D400B3D7FB00B3E79700B394DB0024
:1039B0001307D0C0138F04003307A7409384070078
:1039C0006FF05FEE13850B00EF1080389307050052
:1039D000138757019306C00113050502E3DCE6FADD
:1039E000938787FFB397FB006FF09FFC33EF740161
:1039F00063120F02930400001307F07F9307200067
:103A00006FF09FEA93040000130700009307100073
:103A10006FF09FE9138F0B001307F07F93073000BF
:103A20006FF09FE863E64401631C9A34636AE435EF
:103A30009316FA01935714001317F401135A1A003E
:103A400033E4F6009398840093558F01B3E5150194
:103A500093D80801B35E1A031393050113530301AE
:103A60009357040113158F00337A1A0393860E00BF
:103A7000330ED303131A0A01B3E7470163FEC701EC
:103A8000B387F5009386FEFF63E8B70063F6C701CE
:103A90009386EEFFB387B700B387C74133DF1703C1
:103AA0001314040113540401B3F71703130E0F008A
:103AB000B30EE30393970701B367F40063FED701E6
:103AC000B387F500130EFFFF63E8B70063F6D70175
:103AD000130EEFFFB387B70093960601370401007A
:103AE000B3E2C601130EF4FFB3F6C20193DF020185
:103AF000337EC501B387D741935E0501B303DE0270
:103B0000B384CF03B386DE02338F960093D60301CE
:103B1000B386E601B38FDF0363F49600B38F8F00A3
:103B200013DF0601330FFF01B70F0100938FFFFF73
:103B3000B3F6F60193960601B3F3F301B38676006C
:103B400063E8E701938402006398E7056376D7048E
:103B5000B30FA700B3B3EF003384B300B38787007C
:103B60009384F2FF13870F0063E6F5006396F50276
:103B70006394030263E6E7016310FF0263FEDF0064
:103B8000B30FF50113870F00B3BFAF00B38FBF00B2
:103B90009384E2FFB387F701B306D740B387E741C9
:103BA0003337D700B387E740130FF0FF6386F51272
:103BB000B3DF170313D70601B3F71703330FF3036C
:103BC00093970701B367F70013870F0063FEE701C0
:103BD000B387F5001387FFFF63E8B70063F6E701DB
:103BE0001387EFFFB387B700B387E74133DF1703CE
:103BF0009396060193D60601B3F7170393080F00B7
:103C00003303E30393970701B3E7F60063FE67000E
:103C1000B387F5009308FFFF63E8B70063F667001A
:103C20009308EFFFB387B70093160701B3E61601B9
:103C30001397060113570701B387674013D3060193
:103C4000330FC703330EC30333836E02B38EEE020A
:103C500013570F01B38ECE013307D7016376C70127
:103C6000B70801003303130193580701B3886800B4
:103C7000370301001303F3FF3377670013170701BE
:103C8000337F6F003307E70163E81701639C172355
:103C9000138F060063020704B387F500138FF6FF46
:103CA0001383070063E4B70263E61701639A1721E1
:103CB0006370E502138FE6FF9316150033B3A60079
:103CC0003303B300338367001385060063141301C5
:103CD0006304A700136F1F001307F83F6352E0103F
:103CE00093777F00638007029377FF00930640007D
:103CF000638AD70093074F00B3B6E701B384D400BB
:103D0000138F07009397740063DA0700B70700FF6B
:103D10009387F7FFB3F4F400130708409307E07F9D
:103D200063CAE708135F3F009397D40133EFE701BD
:103D300013D534001315C5008320C102032481026A
:103D40001355C500131747013367A7001316F60173
:103D5000B367C70083244102032901028329C101FB
:103D6000032A8101832A4101032B0101832BC10016
:103D700013050F00938507001301010367800000FE
:103D80001308F8FF130700006FF0DFCB138609005C
:103D900093040A00130F040093070B00130730006D
:103DA0006388E70E13071000638EE70E13072000E9
:103DB000E394E7F213050000130F00001307F07FF0
:103DC0006FF05FF7130609006FF05FFDB70408009E
:103DD000130F000013060000930730006FF01FFC64
:103DE000130510003305E5409307800363CCA70A51
:103DF0009307F00163C4A7061308E841B3970401D1
:103E00003357AF0033180F01B3E7E7003338000131
:103E1000B3E7070133D5A40013F777006300070267
:103E200013F7F70093064000630AD7001387470093
:103E3000B336F7003305D500930707001317850045
:103E400063480706131FD50193D73700336FFF0070
:103E500013553500130700006FF0DFED930710FED8
:103E6000B387E74093060002B3D7F40013070000BE
:103E70006306D5001307E8433397E4003367E7018F
:103E80003337E000B3E7E700130500006FF0DFF819
:103E900037050800130F00001307F07F130600001A
:103EA0006FF05FE913050000130F00006FF09FFA39
:103EB00013050000130F0000130710006FF09FE7B9
:103EC00093060F00138F06006FF0DFE013D7450154
:103ED000B70610009387F6FF1377F77F1306E03FCE
:103EE000B3F7B70093D5F501635EE6041306D0413E
:103EF000635AE600370500801305F5FF3385A500FA
:103F000067800000B3E7D70093063043B386E640EE
:103F10001306F0016340D6021307D7BEB397E7003C
:103F20003355D50033E5A700638005023305A04073
:103F300067800000930630413387E64033D5E700C1
:103F40006FF09FFE130500006780000013D7450146
:103F5000370810009307F8FF1377F77F1306E03F49
:103F6000B3F7B7009306050093D5F501635AE6044D
:103F700013C615001306E6411385F5FF6354C70405
:103F80001305000063900504130630433306E64032
:103F90009305F001B3E7070163CCC5001307D7BE53
:103FA000B397E70033D5C60033E5A700678000006C
:103FB000930630413387E64033D5E7006780000041
:103FC0001305000067800000130101FF2324810016
:103FD000232611001304050063020506EF00505765
:103FE0001307E0419307A0003307A74063C0A7046D
:103FF0009307B000B387A74013055501B357F400EA
:104000003314A4008320C100130504009397C70054
:10401000032481001317470193D7C700B366F70045
:10402000938506001301010167800000130555FF09
:10403000B317A400130400006FF0DFFC9307000027
:10404000130700006FF01FFC93567501B70780003F
:104050009387F7FF13D6750193F6F60F9308F00FC9
:1040600033F8A7001357F501B3F7B7001376F60F2F
:1040700093D5F50113051000639A16016316080025
:104080006314D600638A070067800000E30E16FF02
:10409000E39CC6FEE31AF8FE13050000E306B7FE34
:1040A00013051000E39206FE33350001678000001F
:1040B000B70780009387F7FF9356750133F6A70083
:1040C0001357F50193F6F60F13D575011308F00F8A
:1040D000B3F7B7001375F50F93D5F5016394060197
:1040E000631206041308F00F63140501639C0702B2
:1040F000639A0604631C05026318060463820704BE
:1041000013051000639E05021305F0FF6780000091
:10411000E3C8A6FE63E2C702130500006372F6025D
:104120006FF01FFE1305200067800000E30A06FC05
:10413000639EE500E35ED5FC1305F0FF638C05008C
:1041400067800000E31605FEE39407FE1305F0FF09
:10415000E31807FE1305100067800000130101FE3D
:104160002328210113597501232A910023263101A7
:104170002322510193149500232E1100232C81003A
:10418000232441011379F90F938A050093D49400F5
:104190009359F501630809109307F00F6304F912AE
:1041A00093943400B7070004B3E4F400130919F83A
:1041B000130A000093D77A0113949A0093F7F70F2C
:1041C0001354940093DAFA01638E07101307F00F6B
:1041D000638AE71213143400370700043364E400E1
:1041E000938717F8130700003309F90093172A0083
:1041F000B3E7E7001306A000930619006342F61E1A
:1042000013062000B3C95901634EF6109387F7FFD8
:1042100013061000637AF612370801001305F8FF41
:1042200013D6040193570401B3F4A4003374A4001B
:10423000B3059402330486023306F602B38797026D
:104240003387870093D70501B387E70063F48700BE
:104250003306060133F7A70013170701B3F5A500CE
:104260003307B70093D7070113146700B387C7005C
:104270001357A70193976700333480003364E40039
:104280001397470033E48700635A070093571400DD
:104290001374140033E487001389060093060900A1
:1042A0006F00000C638A040213850400EF00502A9B
:1042B0009307B5FF1309A0F8B394F4003309A9409C
:1042C0006FF01FEF1309F00F130A2000E38404EED0
:1042D000130A30006FF01FEE13090000130A1000DC
:1042E0006FF05FED630A040213050400EF0050262F
:1042F0009307B5FF3314F4009307A0F8B387A740E2
:104300006FF05FEE9307F00F13072000E30E04EC4D
:10431000130730006FF05FED9307000013071000E4
:104320006FF09FEC13061000B317F60013F6075357
:104330006310060C13F607246312061293F787081E
:10434000E38C07EC93890A00930720006302F710BF
:10435000930730006304F710930710006308F71009
:104360001387F607635CE00893777400638A07009D
:104370009377F400130640006384C70013044400DD
:104380009317440063DA0700B70700F89387F7FF35
:104390003374F400138706089307E00F63CAE70A33
:1043A000935734008320C101032481019397970020
:1043B0001315770193D797009399F9013365F500A9
:1043C0008324410103290101032A8100832A41003A
:1043D000336535018329C1001301010267800000A4
:1043E0001306F000638CC7061306B000E38CC7F415
:1043F0001384040013070A006FF01FF593071000E1
:10440000B387E7401307B0016342F7069386E609D6
:10441000B316D400B357F400B336D000B3E7D700D7
:1044200013F77700630A070013F7F70093064000BD
:104430006304D700938747001397570093D737003B
:104440006358070293070000130710006FF09FF5F1
:10445000930700001307F00F6FF0DFF4B707400079
:104460001307F00F930900006FF0DFF393070000CC
:10447000130700006FF01FF3B70680009386F6FF66
:10448000130101FF33F6A6001357750123248100A1
:104490001354F5011315360013D67501B3F6B600A3
:1044A00023202101232611001379F70F23229100E5
:1044B0001376F60F1307F00F93D5F5019397360097
:1044C0006314E6006394070093C51500B306C94062
:1044D00063908518635CD008631606026380070248
:1044E0009306F9FF63980600B387A700130910002D
:1044F0006F00C0041307F00F631EE9009307050067
:104500006F00C0101307F00FE30AE9FE370700043D
:10451000B3E7E7001306B00113071000634ED6009F
:104520001306000233D7D700B306D640B396D700A0
:10453000B336D0003367D700B307A70013975700EF
:104540006356070C130919001307F00F630AE92CCF
:104550003707007E93F617001307F7FF93D717006E
:10456000B3F7E700B3E7D7006F00400A638606069B
:1045700033072641631009026308050C9306F7FF11
:10458000E38406F69305F00F6310B7021309F00FEA
:104590006F00C0079306F00FE30AD6FEB7060004CB
:1045A0003365D500930607009305B001130710008B
:1045B00063CED500130700023307D7403317E50059
:1045C000B355D5003337E00033E7E500B387E700A4
:1045D000130906006FF09FF6130719009376E70F93
:1045E000639C06046312090463020502E38807F072
:1045F000B387A70013975700635A0700370700FCDB
:104600001307F7FFB3F7E7001309100013F777005C
:10461000630A072013F7F700930640006304D720CE
:10462000938747006F000020E30205F663960716A4
:10463000930705006FF09FF59306F00F6300D71EF8
:10464000B307F50093D71700130907006FF01FFC9D
:10465000635ED00663120606E38207EA9306F9FF5B
:1046600063980600B307F540130910006F0040037C
:104670001307F00FE304E9E81306B0011307100075
:10468000634ED6001306000233D7D700B306D640D8
:10469000B396D700B336D0003367D700B307E540F1
:1046A00013975700E35407F6B70400049384F4FF0C
:1046B000B3F497006F0080101307F00FE300E9E4F4
:1046C00037070004B3E7E7006FF01FFB638E0606B1
:1046D0003307264163160902630E051A9306F7FF96
:1046E00063980600B387A740138405006FF0DFF7D7
:1046F0001308F00F631007031309F00F6F00C019C0
:104700009306F00FE30AD6FEB70600043365D50022
:10471000930607001308B00113071000634ED8007A
:10472000130700023307D7403317E5003358D5008D
:104730003337E0003367E800B387E740130906002A
:10474000138405006FF0DFF5130719001377E70FE7
:10475000631C0704631C090263180500639E0712AB
:10476000130400006F00000CE38A07D83307F540FC
:1047700093165700B387A74063C00612930707003C
:10478000E31607E8930700006FF09FFDE31005EACA
:1047900013840500E39C07DE13040000B707000242
:1047A0001309F00F6F000008B304F540139754008D
:1047B00063540704B384A7401384050013850400E1
:1047C000EF0000591305B5FFB394A400634E250311
:1047D0003305254113051500130700023307A740D1
:1047E000B3D7A400B394E400B3349000B3E79700C8
:1047F000130900006FF09FE1E39204FC93070000AF
:10480000130900006FF0DFF5B70700FC9387F7FF8F
:104810003309A940B3F7F4006FF05FDF1309F00F1D
:104820009307000013975700635E070013091900F0
:104830001307F00F6306E906370700FC1307F7FFBD
:10484000B3F7E7001307F00F93D737006318E900B9
:1048500063860700B7074000130400008320C100EF
:10486000131779011315F401B706807F0324810023
:10487000939797003377D70093D79700B367F700E4
:10488000832441000329010033E5A700130101013E
:104890006780000013090700138405006FF01FD71D
:1048A000930700006FF01FFA370680001357750159
:1048B0009307F6FF1377F70F9305E007B3F7A70009
:1048C0009356F50163D6E5049305D00963DAE50054
:1048D000370500801305F5FF3385A60067800000CB
:1048E00033E5C7009307500963DCE7001307A7F619
:1048F0003315E500638006023305A04067800000A1
:1049000093076009B387E7403355F5006FF09FFECA
:104910001305000067800000130101FF232611002A
:104920002324810023229100930705006300050ED4
:104930001357F5413344A7003304E4409354F50181
:1049400013050400EF00C0409307E009B387A740B8
:10495000130760096340F70413078000630EE50A3C
:10496000130585FF3314A40013149400135494000A
:10497000939777018320C100B3E787000324810068
:104980001395F40133E5A7008324410013010101CD
:1049900067800000130790096354F706130750005F
:1049A0003307A7409306B5013357E4003314D4000E
:1049B0003334800033678700370400FC1304F4FFAE
:1049C0009376770033748700638A06001377F700C5
:1049D000930640006304D7001304440013175400E7
:1049E000635C0700B70700FC9387F7FF3374F4009C
:1049F0009307F009B387A740135434006FF0DFF634
:104A00001307B5FF3317E4006FF01FFB930400009A
:104A1000130400006FF05FF5930760096FF0DFF497
:104A2000130101FF23248100232611001304050034
:104A30001307000063040502EF0080311307E0094B
:104A40003307A7409307600963CAE7029307800012
:104A50006302F50A130585FF3314A40013149400B0
:104A600013549400131577018320C100336585002A
:104A7000032481001301010167800000930790095E
:104A800063D4E7069307B50193065000B317F4000B
:104A9000B386A640B337F0003354D400B3E78700A1
:104AA000370400FC1304F4FF93F6770033F4870017
:104AB000638A060093F7F700930640006384D700EB
:104AC000130444009317540063DC0700B70700FC8D
:104AD0009387F7FF1307F0093374F4003307A740F7
:104AE000135434006FF09FF79307B5FFB317F4002A
:104AF0006FF01FFB130760096FF05FF61357750126
:104B00001377F70F130101FF930717002324810088
:104B100023229100131495002326110093F7E70F29
:104B2000135494009354F50163820704935734009F
:104B3000130707381314D4019397C70093D7C700FE
:104B4000131747011395F4013367F7008320C10061
:104B5000B367A700130504000324810083244100E8
:104B600093850700130101016780000063160704A5
:104B700093070000E30204FC13050400EF00401D4E
:104B80009307A00063C2A7029307B000B387A740B2
:104B900013075501B357F4003314E400130790389A
:104BA0003307A7406FF05FF9930755FFB317F40081
:104BB000130400006FF09FFE93070000630A0400D7
:104BC00093573400370708001314D401B3E7E70004
:104BD0001307F07F6FF05FF613D645011376F67F6B
:104BE0009397C5001307160093D797009356D501E6
:104BF0001377E77FB3E6F60093D5F50193173500F9
:104C00006306070A130706C81308E00F6342E80C9F
:104C10006340E008130590FE634AA7103705800043
:104C2000B3E6A6001305E0013305E5401308F001E3
:104C30006348A802130626C833D5A700B397C70058
:104C4000B337F000B396C600B3E7D700B367F500FB
:104C50001307000093F67700638006086F00800D4D
:104C60001308E0FF3308E8409308000233D8060138
:104C70001307000063061501130626CA3397C60002
:104C80003367F7003337E000B367E8006FF05FFC8D
:104C9000131565003335A0009396360093D7D701DE
:104CA000B366D500B3E7F6006FF0DFFAB3E7F600BE
:104CB00063160600B337F0006FF09FF91307F00F8B
:104CC000638C070093963600B70700026FF09FFDD4
:104CD000930700001307F00F9396570063DE06005A
:104CE000130717009306F00F6300D706B70600FC02
:104CF0009386F6FFB3F7D7009306F00F93D73700EC
:104D00006318D70063860700B707400093050000CB
:104D1000B706807F131777013377D7003367F70023
:104D20001395F5013365A700678000009307100015
:104D30001307000093F6F70013064000E38EC6F851
:104D4000938747006FF05FF9930700006FF0DFFA79
:104D5000B70701006378F5029337051093B7170082
:104D60009397370093060002B386F6403355F5005B
:104D70009387415CB387A70003C507003385A6402E
:104D8000678000003707000193078001E37CE5FCA2
:084D9000930700016FF01FFD05
:104D98000D0A3D3D3D204750494F204465627567E7
:104DA8002054657374203D3D3D0D0A00496E6974B9
:104DB80069616C204750494F3A203078253038785F
:104DC8000D0A0000496E697469616C20436F6C7547
:104DD8006D6E73205B373A345D3A20307825780D54
:104DE8000A0000000D0A526F7720546573743A0D5B
:104DF8000A000000526F772564204C4F5720283056
:104E08007825303278293A20436F6C756D6E733D82
:104E1800307825780D0A00000D0A4B6579706164B9
:104E280020546573743A0D0A0000000050726573CF
:104E38007320616E79206B6579206F6E206B6579C0
:104E48007061642E2E2E0D0A000000004B65793A21
:104E58002025632028636F756E743A202564290D18
:104E68000A000000546F6F206D616E79206B6579C0
:104E780073206465746563746564202D2073746F92
:104E88007070696E670D0A00303132333435363749
:104E9800383941424344454600000000D806000026
:104EA80048070000980800002C0800009808000037
:104EB800980800009808000098080000980800006A
:104EC8009808000098080000980800000C070000E7
:104ED800980800009808000098080000C007000023
:104EE800980800009808000098080000980800003A
:104EF8008407000000002041000000000000E03F9F
:104F08002573283078253032782C203078253032B7
:104F180078293A2041434B206572726F72202564CC
:104F28000A000000257328293A204E41434B20658A
:104F380072726F722025642028656E64206F662067
:104F4800726561642073686F756C64206265204EB9
:104F580041434B290A000000257328293A20414380
:104F68004B206572726F72202564200A00000000D1
:104F780056455253494F4E20203078253038580A2C
:104F880000000000434F4E54524F4C2020307825EB
:104F98003038580A0000000053544154555320201B
:104FA800203078253038580A00000000434F4E461C
:104FB80049472020203078253038580A0000000062
:104FC80053454C2020202020203078253038580A9E
:104FD80000000000434C4B5F465245512030782575
:104FE8003038583A252E33662D4D487A0A0000008D
:104FF8005350454544202020203078253038583AF1
:10500800252E33662D6B487A0A000000434C4B442A
:1050180049562020203078253038580A00000000F2
:1050280052554E2020202020203078253038580A2C
:105038000000000054585F44415441202030782536
:105048003038580A0000000052585F44415441204B
:10505800203078253038580A000000006932635F34
:10506800726561645F643772380000006932635F9B
:10507800726561644E5F6437723800006932635F3D
:1050880077726974655F6437723800006932635FEC
:1050980077726974654E5F64377238006932635F8E
:1050A800726561645F643772313600006932635F2C
:1050B800726561644E5F6437723136006932635FCE
:1050C80077726974655F6437723136006932635F7D
:1050D80077726974654E5F6437723136000000007C
:1050E800000000000000E03F0000000080842E4126
:1050F8000000000000408F404750494F205645525D
:1051080053494F4E3A203078253038580A0000006D
:105118004750494F204E414D452020203A203078B5
:10512800253038580A0000004750494F204449525A
:10513800202020203A203078253038580A000000F6
:105148004750494F20494E50555420203A20307836
:10515800253038580A0000004750494F204F555411
:10516800505554203A203078253038580A0000002D
:105178004750494F204D41534B2020203A2030784A
:10518800253038580A0000004750494F20495251ED
:10519800202020203A203078253038580A00000096
:1051A8004750494F20454447452020203A20307831
:1051B800253038580A0000004750494F20504F4CBE
:1051C800202020203A203078253038580A00000066
:1051D8005B4932435D20454550524F4D2030783071
:1051E80030205265736574204F4B0D0A0000000093
:1051F8005B4932435D20454550524F4D20526573FF
:105208006574204661696C65640D0A005B49324328
:105218005D20454550524F4D203078303120526541
:10522800736574204F4B0D0A000000005B49324340
:105238005D20454550524F4D20526573657420439B
:105248006F6D706C6574650D0A0000000D0A5B498E
:1052580032435D20454550524F4D205465737420AC
:1052680053746172740D0A005B4932435D205772B2
:10527800697465204F4B2028307825303278290D05
:105288000A0000005B4932435D205772697465204B
:105298004661696C65640D0A000000005B49324391
:1052A8005D20526561642030783030204F4B2020DB
:1052B80028307825303278290D0A00005B493243BE
:1052C8005D2052656164204661696C65640D0A0061
:1052D8005B4932435D20454550524F4D205465731C
:1052E8007420504153530D0A000000005B493243BB
:1052F8005D20454550524F4D2054657374204641FA
:10530800494C0D0A000000003046454437383943FF
:105318003435364231323341B43D0000A43E0000FA
:10532800C43D0000A43E0000CC3D0000A43E0000A7
:10533800C43D0000B43D0000B43D0000CC3D000079
:10534800C43D00008C3D00008C3D00008C3D0000F9
:10535800CC3D00000001020203030303040404041B
:1053680004040404050505050505050505050505E9
:1053780005050505060606060606060606060606C9
:1053880006060606060606060606060606060606B5
:105398000606060607070707070707070707070799
:1053A8000707070707070707070707070707070785
:1053B8000707070707070707070707070707070775
:1053C8000707070707070707070707070707070765
:1053D8000707070708080808080808080808080849
:1053E8000808080808080808080808080808080835
:1053F8000808080808080808080808080808080825
:105408000808080808080808080808080808080814
:105418000808080808080808080808080808080804
:1054280008080808080808080808080808080808F4
:1054380008080808080808080808080808080808E4
:1054480008080808080808080808080808080808D4
:0854580008080808000000002C
:10546000000000000000000000000000000000003C
:1054700000000290000002900400029010000290D0
:1054800014000290180002901C000290200002906C
:10549000000006C0000006C0040006C0080006C0E8
:1054A0000C0006C0100006C0200006C0240006C084
:1054B000280006C0300006C0400006C0500006C0EC
:1054C0000800000008000000000005C0000005C042
:1054D000040005C0100005C0140005C0180005C078
:1054E0001C0005C0200005C0240005C0280005C020
:0854F000000003900000000021
:00000001FF
